{
  "_format": "hh-sol-artifact-1",
  "contractName": "SpaceCoin",
  "sourceName": "contracts/SpaceCoin.sol",
  "abi": [
    {
      "inputs": [
        {
          "internalType": "uint256",
          "name": "initialSupply",
          "type": "uint256"
        },
        {
          "internalType": "address",
          "name": "_treasury",
          "type": "address"
        }
      ],
      "stateMutability": "nonpayable",
      "type": "constructor"
    },
    {
      "anonymous": false,
      "inputs": [
        {
          "indexed": true,
          "internalType": "address",
          "name": "owner",
          "type": "address"
        },
        {
          "indexed": true,
          "internalType": "address",
          "name": "spender",
          "type": "address"
        },
        {
          "indexed": false,
          "internalType": "uint256",
          "name": "value",
          "type": "uint256"
        }
      ],
      "name": "Approval",
      "type": "event"
    },
    {
      "anonymous": false,
      "inputs": [
        {
          "indexed": true,
          "internalType": "address",
          "name": "from",
          "type": "address"
        },
        {
          "indexed": true,
          "internalType": "address",
          "name": "to",
          "type": "address"
        },
        {
          "indexed": false,
          "internalType": "uint256",
          "name": "value",
          "type": "uint256"
        }
      ],
      "name": "Transfer",
      "type": "event"
    },
    {
      "inputs": [
        {
          "internalType": "address",
          "name": "owner",
          "type": "address"
        },
        {
          "internalType": "address",
          "name": "spender",
          "type": "address"
        }
      ],
      "name": "allowance",
      "outputs": [
        {
          "internalType": "uint256",
          "name": "",
          "type": "uint256"
        }
      ],
      "stateMutability": "view",
      "type": "function"
    },
    {
      "inputs": [
        {
          "internalType": "address",
          "name": "spender",
          "type": "address"
        },
        {
          "internalType": "uint256",
          "name": "amount",
          "type": "uint256"
        }
      ],
      "name": "approve",
      "outputs": [
        {
          "internalType": "bool",
          "name": "",
          "type": "bool"
        }
      ],
      "stateMutability": "nonpayable",
      "type": "function"
    },
    {
      "inputs": [
        {
          "internalType": "address",
          "name": "account",
          "type": "address"
        }
      ],
      "name": "balanceOf",
      "outputs": [
        {
          "internalType": "uint256",
          "name": "",
          "type": "uint256"
        }
      ],
      "stateMutability": "view",
      "type": "function"
    },
    {
      "inputs": [
        {
          "internalType": "address",
          "name": "",
          "type": "address"
        }
      ],
      "name": "balances",
      "outputs": [
        {
          "internalType": "uint256",
          "name": "",
          "type": "uint256"
        }
      ],
      "stateMutability": "view",
      "type": "function"
    },
    {
      "inputs": [],
      "name": "decimals",
      "outputs": [
        {
          "internalType": "uint8",
          "name": "",
          "type": "uint8"
        }
      ],
      "stateMutability": "view",
      "type": "function"
    },
    {
      "inputs": [
        {
          "internalType": "address",
          "name": "spender",
          "type": "address"
        },
        {
          "internalType": "uint256",
          "name": "subtractedValue",
          "type": "uint256"
        }
      ],
      "name": "decreaseAllowance",
      "outputs": [
        {
          "internalType": "bool",
          "name": "",
          "type": "bool"
        }
      ],
      "stateMutability": "nonpayable",
      "type": "function"
    },
    {
      "inputs": [
        {
          "internalType": "address",
          "name": "spender",
          "type": "address"
        },
        {
          "internalType": "uint256",
          "name": "addedValue",
          "type": "uint256"
        }
      ],
      "name": "increaseAllowance",
      "outputs": [
        {
          "internalType": "bool",
          "name": "",
          "type": "bool"
        }
      ],
      "stateMutability": "nonpayable",
      "type": "function"
    },
    {
      "inputs": [
        {
          "internalType": "uint256",
          "name": "amount",
          "type": "uint256"
        }
      ],
      "name": "increaseSupply",
      "outputs": [],
      "stateMutability": "nonpayable",
      "type": "function"
    },
    {
      "inputs": [],
      "name": "name",
      "outputs": [
        {
          "internalType": "string",
          "name": "",
          "type": "string"
        }
      ],
      "stateMutability": "view",
      "type": "function"
    },
    {
      "inputs": [],
      "name": "owner",
      "outputs": [
        {
          "internalType": "address",
          "name": "",
          "type": "address"
        }
      ],
      "stateMutability": "view",
      "type": "function"
    },
    {
      "inputs": [
        {
          "internalType": "bool",
          "name": "control",
          "type": "bool"
        }
      ],
      "name": "setTax",
      "outputs": [],
      "stateMutability": "nonpayable",
      "type": "function"
    },
    {
      "inputs": [],
      "name": "supply",
      "outputs": [
        {
          "internalType": "uint256",
          "name": "",
          "type": "uint256"
        }
      ],
      "stateMutability": "view",
      "type": "function"
    },
    {
      "inputs": [],
      "name": "symbol",
      "outputs": [
        {
          "internalType": "string",
          "name": "",
          "type": "string"
        }
      ],
      "stateMutability": "view",
      "type": "function"
    },
    {
      "inputs": [],
      "name": "tax",
      "outputs": [
        {
          "internalType": "bool",
          "name": "",
          "type": "bool"
        }
      ],
      "stateMutability": "view",
      "type": "function"
    },
    {
      "inputs": [],
      "name": "totalSupply",
      "outputs": [
        {
          "internalType": "uint256",
          "name": "",
          "type": "uint256"
        }
      ],
      "stateMutability": "view",
      "type": "function"
    },
    {
      "inputs": [
        {
          "internalType": "address",
          "name": "recipient",
          "type": "address"
        },
        {
          "internalType": "uint256",
          "name": "amount",
          "type": "uint256"
        }
      ],
      "name": "transfer",
      "outputs": [
        {
          "internalType": "bool",
          "name": "",
          "type": "bool"
        }
      ],
      "stateMutability": "nonpayable",
      "type": "function"
    },
    {
      "inputs": [
        {
          "internalType": "address",
          "name": "sender",
          "type": "address"
        },
        {
          "internalType": "address",
          "name": "recipient",
          "type": "address"
        },
        {
          "internalType": "uint256",
          "name": "amount",
          "type": "uint256"
        }
      ],
      "name": "transferFrom",
      "outputs": [
        {
          "internalType": "bool",
          "name": "",
          "type": "bool"
        }
      ],
      "stateMutability": "nonpayable",
      "type": "function"
    },
    {
      "inputs": [],
      "name": "treasury",
      "outputs": [
        {
          "internalType": "address",
          "name": "",
          "type": "address"
        }
      ],
      "stateMutability": "view",
      "type": "function"
    }
  ],
  "bytecode": "0x60806040523480156200001157600080fd5b5060405162001f4238038062001f428339818101604052810190620000379190620003c1565b6040518060400160405280600981526020017f5370616365436f696e00000000000000000000000000000000000000000000008152506040518060400160405280600381526020017f53504300000000000000000000000000000000000000000000000000000000008152508160039080519060200190620000bb929190620002e3565b508060049080519060200190620000d4929190620002e3565b50505033600560016101000a81548173ffffffffffffffffffffffffffffffffffffffff021916908373ffffffffffffffffffffffffffffffffffffffff16021790555080600660006101000a81548173ffffffffffffffffffffffffffffffffffffffff021916908373ffffffffffffffffffffffffffffffffffffffff1602179055506200016b33836200017360201b60201c565b505062000616565b6969e10de76676d0800000816007546200018e91906200048a565b1115620001d2576040517f08c379a0000000000000000000000000000000000000000000000000000000008152600401620001c9906200043a565b60405180910390fd5b620001e660008383620002d960201b60201c565b8060076000828254620001fa91906200048a565b9250508190555080600860008473ffffffffffffffffffffffffffffffffffffffff1673ffffffffffffffffffffffffffffffffffffffff16815260200190815260200160002060008282546200025291906200048a565b925050819055508173ffffffffffffffffffffffffffffffffffffffff16600073ffffffffffffffffffffffffffffffffffffffff167fddf252ad1be2c89b69c2b068fc378daa952ba7f163c4a11628f55a4df523b3ef83604051620002b991906200045c565b60405180910390a3620002d560008383620002de60201b60201c565b5050565b505050565b505050565b828054620002f19062000525565b90600052602060002090601f01602090048101928262000315576000855562000361565b82601f106200033057805160ff191683800117855562000361565b8280016001018555821562000361579182015b828111156200036057825182559160200191906001019062000343565b5b50905062000370919062000374565b5090565b5b808211156200038f57600081600090555060010162000375565b5090565b600081519050620003a481620005e2565b92915050565b600081519050620003bb81620005fc565b92915050565b60008060408385031215620003d557600080fd5b6000620003e585828601620003aa565b9250506020620003f88582860162000393565b9150509250929050565b60006200041160088362000479565b91506200041e82620005b9565b602082019050919050565b62000434816200051b565b82525050565b60006020820190508181036000830152620004558162000402565b9050919050565b600060208201905062000473600083018462000429565b92915050565b600082825260208201905092915050565b600062000497826200051b565b9150620004a4836200051b565b9250827fffffffffffffffffffffffffffffffffffffffffffffffffffffffffffffffff03821115620004dc57620004db6200055b565b5b828201905092915050565b6000620004f482620004fb565b9050919050565b600073ffffffffffffffffffffffffffffffffffffffff82169050919050565b6000819050919050565b600060028204905060018216806200053e57607f821691505b602082108114156200055557620005546200058a565b5b50919050565b7f4e487b7100000000000000000000000000000000000000000000000000000000600052601160045260246000fd5b7f4e487b7100000000000000000000000000000000000000000000000000000000600052602260045260246000fd5b7f4f5645525f4d4158000000000000000000000000000000000000000000000000600082015250565b620005ed81620004e7565b8114620005f957600080fd5b50565b62000607816200051b565b81146200061357600080fd5b50565b61191c80620006266000396000f3fe608060405234801561001057600080fd5b50600436106101165760003560e01c806370a08231116100a2578063a457c2d711610071578063a457c2d7146102fb578063a9059cbb1461032b578063b921e1631461035b578063dd62ed3e14610377578063e234472f146103a757610116565b806370a08231146102715780638da5cb5b146102a157806395d89b41146102bf57806399c8d556146102dd57610116565b806323b872dd116100e957806323b872dd146101a557806327e235e3146101d5578063313ce56714610205578063395093511461022357806361d027b31461025357610116565b8063047fc9aa1461011b57806306fdde0314610139578063095ea7b31461015757806318160ddd14610187575b600080fd5b6101236103c3565b6040516101309190611405565b60405180910390f35b6101416103c9565b60405161014e9190611303565b60405180910390f35b610171600480360381019061016c91906110d5565b61045b565b60405161017e91906112e8565b60405180910390f35b61018f610479565b60405161019c9190611405565b60405180910390f35b6101bf60048036038101906101ba9190611086565b610483565b6040516101cc91906112e8565b60405180910390f35b6101ef60048036038101906101ea9190611021565b61057b565b6040516101fc9190611405565b60405180910390f35b61020d610593565b60405161021a9190611420565b60405180910390f35b61023d600480360381019061023891906110d5565b61059c565b60405161024a91906112e8565b60405180910390f35b61025b610648565b60405161026891906112cd565b60405180910390f35b61028b60048036038101906102869190611021565b61066e565b6040516102989190611405565b60405180910390f35b6102a96106b7565b6040516102b691906112cd565b60405180910390f35b6102c76106dd565b6040516102d49190611303565b60405180910390f35b6102e561076f565b6040516102f291906112e8565b60405180910390f35b610315600480360381019061031091906110d5565b610782565b60405161032291906112e8565b60405180910390f35b610345600480360381019061034091906110d5565b61086d565b60405161035291906112e8565b60405180910390f35b6103756004803603810190610370919061113a565b61088b565b005b610391600480360381019061038c919061104a565b610928565b60405161039e9190611405565b60405180910390f35b6103c160048036038101906103bc9190611111565b6109af565b005b60075481565b6060600380546103d8906115f4565b80601f0160208091040260200160405190810160405280929190818152602001828054610404906115f4565b80156104515780601f1061042657610100808354040283529160200191610451565b820191906000526020600020905b81548152906001019060200180831161043457829003601f168201915b5050505050905090565b600061046f610468610a5c565b8484610a64565b6001905092915050565b6000600754905090565b6000610490848484610c2f565b6000600160008673ffffffffffffffffffffffffffffffffffffffff1673ffffffffffffffffffffffffffffffffffffffff16815260200190815260200160002060006104db610a5c565b73ffffffffffffffffffffffffffffffffffffffff1673ffffffffffffffffffffffffffffffffffffffff1681526020019081526020016000205490508281101561055b576040517f08c379a000000000000000000000000000000000000000000000000000000000815260040161055290611385565b60405180910390fd5b61056f85610567610a5c565b858403610a64565b60019150509392505050565b60086020528060005260406000206000915090505481565b60006012905090565b600061063e6105a9610a5c565b8484600160006105b7610a5c565b73ffffffffffffffffffffffffffffffffffffffff1673ffffffffffffffffffffffffffffffffffffffff16815260200190815260200160002060008873ffffffffffffffffffffffffffffffffffffffff1673ffffffffffffffffffffffffffffffffffffffff168152602001908152602001600020546106399190611457565b610a64565b6001905092915050565b600660009054906101000a900473ffffffffffffffffffffffffffffffffffffffff1681565b6000600860008373ffffffffffffffffffffffffffffffffffffffff1673ffffffffffffffffffffffffffffffffffffffff168152602001908152602001600020549050919050565b600560019054906101000a900473ffffffffffffffffffffffffffffffffffffffff1681565b6060600480546106ec906115f4565b80601f0160208091040260200160405190810160405280929190818152602001828054610718906115f4565b80156107655780601f1061073a57610100808354040283529160200191610765565b820191906000526020600020905b81548152906001019060200180831161074857829003601f168201915b5050505050905090565b600560009054906101000a900460ff1681565b60008060016000610791610a5c565b73ffffffffffffffffffffffffffffffffffffffff1673ffffffffffffffffffffffffffffffffffffffff16815260200190815260200160002060008573ffffffffffffffffffffffffffffffffffffffff1673ffffffffffffffffffffffffffffffffffffffff1681526020019081526020016000205490508281101561084e576040517f08c379a0000000000000000000000000000000000000000000000000000000008152600401610845906113e5565b60405180910390fd5b610862610859610a5c565b85858403610a64565b600191505092915050565b600061088161087a610a5c565b8484610c2f565b6001905092915050565b600560019054906101000a900473ffffffffffffffffffffffffffffffffffffffff1673ffffffffffffffffffffffffffffffffffffffff163373ffffffffffffffffffffffffffffffffffffffff161461091b576040517f08c379a0000000000000000000000000000000000000000000000000000000008152600401610912906113c5565b60405180910390fd5b6109253382610e8d565b50565b6000600160008473ffffffffffffffffffffffffffffffffffffffff1673ffffffffffffffffffffffffffffffffffffffff16815260200190815260200160002060008373ffffffffffffffffffffffffffffffffffffffff1673ffffffffffffffffffffffffffffffffffffffff16815260200190815260200160002054905092915050565b600560019054906101000a900473ffffffffffffffffffffffffffffffffffffffff1673ffffffffffffffffffffffffffffffffffffffff163373ffffffffffffffffffffffffffffffffffffffff1614610a3f576040517f08c379a0000000000000000000000000000000000000000000000000000000008152600401610a36906113c5565b60405180910390fd5b80600560006101000a81548160ff02191690831515021790555050565b600033905090565b600073ffffffffffffffffffffffffffffffffffffffff168373ffffffffffffffffffffffffffffffffffffffff161415610ad4576040517f08c379a0000000000000000000000000000000000000000000000000000000008152600401610acb906113a5565b60405180910390fd5b600073ffffffffffffffffffffffffffffffffffffffff168273ffffffffffffffffffffffffffffffffffffffff161415610b44576040517f08c379a0000000000000000000000000000000000000000000000000000000008152600401610b3b90611325565b60405180910390fd5b80600160008573ffffffffffffffffffffffffffffffffffffffff1673ffffffffffffffffffffffffffffffffffffffff16815260200190815260200160002060008473ffffffffffffffffffffffffffffffffffffffff1673ffffffffffffffffffffffffffffffffffffffff168152602001908152602001600020819055508173ffffffffffffffffffffffffffffffffffffffff168373ffffffffffffffffffffffffffffffffffffffff167f8c5be1e5ebec7d5bd14f71427d1e84f3dd0314c0f7b2291e5b200ac8c7c3b92583604051610c229190611405565b60405180910390a3505050565b610c3a838383610fd8565b6000600860008573ffffffffffffffffffffffffffffffffffffffff1673ffffffffffffffffffffffffffffffffffffffff16815260200190815260200160002054905081811015610cc1576040517f08c379a0000000000000000000000000000000000000000000000000000000008152600401610cb890611345565b60405180910390fd5b818103600860008673ffffffffffffffffffffffffffffffffffffffff1673ffffffffffffffffffffffffffffffffffffffff16815260200190815260200160002081905550600560009054906101000a900460ff1615610dc15760008290506064606284610d3091906114de565b610d3a91906114ad565b92508281610d489190611538565b60086000600660009054906101000a900473ffffffffffffffffffffffffffffffffffffffff1673ffffffffffffffffffffffffffffffffffffffff1673ffffffffffffffffffffffffffffffffffffffff1681526020019081526020016000206000828254610db89190611457565b92505081905550505b81600860008573ffffffffffffffffffffffffffffffffffffffff1673ffffffffffffffffffffffffffffffffffffffff1681526020019081526020016000206000828254610e109190611457565b925050819055508273ffffffffffffffffffffffffffffffffffffffff168473ffffffffffffffffffffffffffffffffffffffff167fddf252ad1be2c89b69c2b068fc378daa952ba7f163c4a11628f55a4df523b3ef84604051610e749190611405565b60405180910390a3610e87848484610fdd565b50505050565b6969e10de76676d080000081600754610ea69190611457565b1115610ee7576040517f08c379a0000000000000000000000000000000000000000000000000000000008152600401610ede90611365565b60405180910390fd5b610ef360008383610fd8565b8060076000828254610f059190611457565b9250508190555080600860008473ffffffffffffffffffffffffffffffffffffffff1673ffffffffffffffffffffffffffffffffffffffff1681526020019081526020016000206000828254610f5b9190611457565b925050819055508173ffffffffffffffffffffffffffffffffffffffff16600073ffffffffffffffffffffffffffffffffffffffff167fddf252ad1be2c89b69c2b068fc378daa952ba7f163c4a11628f55a4df523b3ef83604051610fc09190611405565b60405180910390a3610fd460008383610fdd565b5050565b505050565b505050565b600081359050610ff1816118a1565b92915050565b600081359050611006816118b8565b92915050565b60008135905061101b816118cf565b92915050565b60006020828403121561103357600080fd5b600061104184828501610fe2565b91505092915050565b6000806040838503121561105d57600080fd5b600061106b85828601610fe2565b925050602061107c85828601610fe2565b9150509250929050565b60008060006060848603121561109b57600080fd5b60006110a986828701610fe2565b93505060206110ba86828701610fe2565b92505060406110cb8682870161100c565b9150509250925092565b600080604083850312156110e857600080fd5b60006110f685828601610fe2565b92505060206111078582860161100c565b9150509250929050565b60006020828403121561112357600080fd5b600061113184828501610ff7565b91505092915050565b60006020828403121561114c57600080fd5b600061115a8482850161100c565b91505092915050565b61116c8161156c565b82525050565b61117b8161157e565b82525050565b600061118c8261143b565b6111968185611446565b93506111a68185602086016115c1565b6111af816116b3565b840191505092915050565b60006111c7602283611446565b91506111d2826116c4565b604082019050919050565b60006111ea602683611446565b91506111f582611713565b604082019050919050565b600061120d600883611446565b915061121882611762565b602082019050919050565b6000611230602883611446565b915061123b8261178b565b604082019050919050565b6000611253602483611446565b915061125e826117da565b604082019050919050565b6000611276600983611446565b915061128182611829565b602082019050919050565b6000611299602583611446565b91506112a482611852565b604082019050919050565b6112b8816115aa565b82525050565b6112c7816115b4565b82525050565b60006020820190506112e26000830184611163565b92915050565b60006020820190506112fd6000830184611172565b92915050565b6000602082019050818103600083015261131d8184611181565b905092915050565b6000602082019050818103600083015261133e816111ba565b9050919050565b6000602082019050818103600083015261135e816111dd565b9050919050565b6000602082019050818103600083015261137e81611200565b9050919050565b6000602082019050818103600083015261139e81611223565b9050919050565b600060208201905081810360008301526113be81611246565b9050919050565b600060208201905081810360008301526113de81611269565b9050919050565b600060208201905081810360008301526113fe8161128c565b9050919050565b600060208201905061141a60008301846112af565b92915050565b600060208201905061143560008301846112be565b92915050565b600081519050919050565b600082825260208201905092915050565b6000611462826115aa565b915061146d836115aa565b9250827fffffffffffffffffffffffffffffffffffffffffffffffffffffffffffffffff038211156114a2576114a1611626565b5b828201905092915050565b60006114b8826115aa565b91506114c3836115aa565b9250826114d3576114d2611655565b5b828204905092915050565b60006114e9826115aa565b91506114f4836115aa565b9250817fffffffffffffffffffffffffffffffffffffffffffffffffffffffffffffffff048311821515161561152d5761152c611626565b5b828202905092915050565b6000611543826115aa565b915061154e836115aa565b92508282101561156157611560611626565b5b828203905092915050565b60006115778261158a565b9050919050565b60008115159050919050565b600073ffffffffffffffffffffffffffffffffffffffff82169050919050565b6000819050919050565b600060ff82169050919050565b60005b838110156115df5780820151818401526020810190506115c4565b838111156115ee576000848401525b50505050565b6000600282049050600182168061160c57607f821691505b602082108114156116205761161f611684565b5b50919050565b7f4e487b7100000000000000000000000000000000000000000000000000000000600052601160045260246000fd5b7f4e487b7100000000000000000000000000000000000000000000000000000000600052601260045260246000fd5b7f4e487b7100000000000000000000000000000000000000000000000000000000600052602260045260246000fd5b6000601f19601f8301169050919050565b7f45524332303a20617070726f766520746f20746865207a65726f20616464726560008201527f7373000000000000000000000000000000000000000000000000000000000000602082015250565b7f45524332303a207472616e7366657220616d6f756e742065786365656473206260008201527f616c616e63650000000000000000000000000000000000000000000000000000602082015250565b7f4f5645525f4d4158000000000000000000000000000000000000000000000000600082015250565b7f45524332303a207472616e7366657220616d6f756e742065786365656473206160008201527f6c6c6f77616e6365000000000000000000000000000000000000000000000000602082015250565b7f45524332303a20617070726f76652066726f6d20746865207a65726f2061646460008201527f7265737300000000000000000000000000000000000000000000000000000000602082015250565b7f4e4f545f4f574e45520000000000000000000000000000000000000000000000600082015250565b7f45524332303a2064656372656173656420616c6c6f77616e63652062656c6f7760008201527f207a65726f000000000000000000000000000000000000000000000000000000602082015250565b6118aa8161156c565b81146118b557600080fd5b50565b6118c18161157e565b81146118cc57600080fd5b50565b6118d8816115aa565b81146118e357600080fd5b5056fea2646970667358221220ba98801ce039b499afdf7091316a9b0e2e7323540ec6dc82b494380ca9c8d10c64736f6c63430008040033",
  "linkReferences": {},
  "deployedLinkReferences": {}
}