{
  "_format": "hh-sol-artifact-1",
  "contractName": "ICO",
  "sourceName": "contracts/ICO.sol",
  "abi": [
    {
      "inputs": [
        {
          "internalType": "address[]",
          "name": "addrs",
          "type": "address[]"
        },
        {
          "internalType": "address",
          "name": "_token",
          "type": "address"
        }
      ],
      "stateMutability": "nonpayable",
      "type": "constructor"
    },
    {
      "inputs": [
        {
          "internalType": "enum ICO.Phase",
          "name": "_phase",
          "type": "uint8"
        }
      ],
      "name": "changePhase",
      "outputs": [],
      "stateMutability": "nonpayable",
      "type": "function"
    },
    {
      "inputs": [],
      "name": "contribute",
      "outputs": [],
      "stateMutability": "payable",
      "type": "function"
    },
    {
      "inputs": [],
      "name": "owner",
      "outputs": [
        {
          "internalType": "address",
          "name": "",
          "type": "address"
        }
      ],
      "stateMutability": "view",
      "type": "function"
    },
    {
      "inputs": [
        {
          "internalType": "bool",
          "name": "_paused",
          "type": "bool"
        }
      ],
      "name": "pause",
      "outputs": [],
      "stateMutability": "nonpayable",
      "type": "function"
    },
    {
      "inputs": [],
      "name": "paused",
      "outputs": [
        {
          "internalType": "bool",
          "name": "",
          "type": "bool"
        }
      ],
      "stateMutability": "view",
      "type": "function"
    },
    {
      "inputs": [],
      "name": "phase",
      "outputs": [
        {
          "internalType": "enum ICO.Phase",
          "name": "",
          "type": "uint8"
        }
      ],
      "stateMutability": "view",
      "type": "function"
    },
    {
      "inputs": [],
      "name": "spcOwner",
      "outputs": [
        {
          "internalType": "address",
          "name": "",
          "type": "address"
        }
      ],
      "stateMutability": "view",
      "type": "function"
    },
    {
      "inputs": [],
      "name": "spcToken",
      "outputs": [
        {
          "internalType": "contract IERC20",
          "name": "",
          "type": "address"
        }
      ],
      "stateMutability": "view",
      "type": "function"
    },
    {
      "inputs": [],
      "name": "total",
      "outputs": [
        {
          "internalType": "uint256",
          "name": "",
          "type": "uint256"
        }
      ],
      "stateMutability": "view",
      "type": "function"
    },
    {
      "inputs": [],
      "name": "withdraw",
      "outputs": [],
      "stateMutability": "nonpayable",
      "type": "function"
    }
  ],
  "bytecode": "0x60806040523480156200001157600080fd5b50604051620016a2380380620016a2833981810160405281019062000037919062000237565b33600160006101000a81548173ffffffffffffffffffffffffffffffffffffffff021916908373ffffffffffffffffffffffffffffffffffffffff16021790555060005b82518110156200013457600160036000858481518110620000c5577f4e487b7100000000000000000000000000000000000000000000000000000000600052603260045260246000fd5b602002602001015173ffffffffffffffffffffffffffffffffffffffff1673ffffffffffffffffffffffffffffffffffffffff16815260200190815260200160002060006101000a81548160ff02191690831515021790555080806200012b9062000332565b9150506200007b565b5080600060016101000a81548173ffffffffffffffffffffffffffffffffffffffff021916908373ffffffffffffffffffffffffffffffffffffffff1602179055505050620003f8565b6000620001956200018f84620002c5565b62000291565b90508083825260208201905082856020860282011115620001b557600080fd5b60005b85811015620001e95781620001ce8882620001f3565b845260208401935060208301925050600181019050620001b8565b5050509392505050565b6000815190506200020481620003de565b92915050565b600082601f8301126200021c57600080fd5b81516200022e8482602086016200017e565b91505092915050565b600080604083850312156200024b57600080fd5b600083015167ffffffffffffffff8111156200026657600080fd5b62000274858286016200020a565b92505060206200028785828601620001f3565b9150509250929050565b6000604051905081810181811067ffffffffffffffff82111715620002bb57620002ba620003af565b5b8060405250919050565b600067ffffffffffffffff821115620002e357620002e2620003af565b5b602082029050602081019050919050565b6000620003018262000308565b9050919050565b600073ffffffffffffffffffffffffffffffffffffffff82169050919050565b6000819050919050565b60006200033f8262000328565b91507fffffffffffffffffffffffffffffffffffffffffffffffffffffffffffffffff82141562000375576200037462000380565b5b600182019050919050565b7f4e487b7100000000000000000000000000000000000000000000000000000000600052601160045260246000fd5b7f4e487b7100000000000000000000000000000000000000000000000000000000600052604160045260246000fd5b620003e981620002f4565b8114620003f557600080fd5b50565b61129a80620004086000396000f3fe6080604052600436106100915760003560e01c80635c975abb116100595780635c975abb146101555780638da5cb5b14610180578063b1c9fe6e146101ab578063d7bb99ba146101d6578063fe878533146101e057610091565b806302329a29146100965780630721c297146100bf5780632ddbd13a146100e85780633ccfd60b1461011357806359f885b01461012a575b600080fd5b3480156100a257600080fd5b506100bd60048036038101906100b89190610cb5565b61020b565b005b3480156100cb57600080fd5b506100e660048036038101906100e19190610d07565b6102b8565b005b3480156100f457600080fd5b506100fd610459565b60405161010a919061105e565b60405180910390f35b34801561011f57600080fd5b5061012861045f565b005b34801561013657600080fd5b5061013f610697565b60405161014c9190610f68565b60405180910390f35b34801561016157600080fd5b5061016a6106bd565b6040516101779190610f4d565b60405180910390f35b34801561018c57600080fd5b506101956106d0565b6040516101a29190610efb565b60405180910390f35b3480156101b757600080fd5b506101c06106f6565b6040516101cd9190610f83565b60405180910390f35b6101de610707565b005b3480156101ec57600080fd5b506101f56108f8565b6040516102029190610efb565b60405180910390f35b600160009054906101000a900473ffffffffffffffffffffffffffffffffffffffff1673ffffffffffffffffffffffffffffffffffffffff163373ffffffffffffffffffffffffffffffffffffffff161461029b576040517f08c379a00000000000000000000000000000000000000000000000000000000081526004016102929061103e565b60405180910390fd5b80600060156101000a81548160ff02191690831515021790555050565b600160009054906101000a900473ffffffffffffffffffffffffffffffffffffffff1673ffffffffffffffffffffffffffffffffffffffff163373ffffffffffffffffffffffffffffffffffffffff1614610348576040517f08c379a000000000000000000000000000000000000000000000000000000000815260040161033f9061103e565b60405180910390fd5b60008054906101000a900460ff16600281111561038e577f4e487b7100000000000000000000000000000000000000000000000000000000600052602160045260246000fd5b8160028111156103c7577f4e487b7100000000000000000000000000000000000000000000000000000000600052602160045260246000fd5b11610407576040517f08c379a00000000000000000000000000000000000000000000000000000000081526004016103fe90610fde565b60405180910390fd5b806000806101000a81548160ff02191690836002811115610451577f4e487b7100000000000000000000000000000000000000000000000000000000600052602160045260246000fd5b021790555050565b60055481565b6000600460003373ffffffffffffffffffffffffffffffffffffffff1673ffffffffffffffffffffffffffffffffffffffff16815260200190815260200160002054116104ab57600080fd5b6002808111156104e4577f4e487b7100000000000000000000000000000000000000000000000000000000600052602160045260246000fd5b60008054906101000a900460ff16600281111561052a577f4e487b7100000000000000000000000000000000000000000000000000000000600052602160045260246000fd5b141561065057600060019054906101000a900473ffffffffffffffffffffffffffffffffffffffff1673ffffffffffffffffffffffffffffffffffffffff166323b872dd600160009054906101000a900473ffffffffffffffffffffffffffffffffffffffff1633600460003373ffffffffffffffffffffffffffffffffffffffff1673ffffffffffffffffffffffffffffffffffffffff1681526020019081526020016000205460056105de91906110e0565b6040518463ffffffff1660e01b81526004016105fc93929190610f16565b602060405180830381600087803b15801561061657600080fd5b505af115801561062a573d6000803e3d6000fd5b505050506040513d601f19601f8201168201806040525081019061064e9190610cde565b505b6000600460003373ffffffffffffffffffffffffffffffffffffffff1673ffffffffffffffffffffffffffffffffffffffff16815260200190815260200160002081905550565b600060019054906101000a900473ffffffffffffffffffffffffffffffffffffffff1681565b600060159054906101000a900460ff1681565b600160009054906101000a900473ffffffffffffffffffffffffffffffffffffffff1681565b60008054906101000a900460ff1681565b600060159054906101000a900460ff1615610757576040517f08c379a000000000000000000000000000000000000000000000000000000000815260040161074e90610f9e565b60405180910390fd5b60006002811115610791577f4e487b7100000000000000000000000000000000000000000000000000000000600052602160045260246000fd5b60008054906101000a900460ff1660028111156107d7577f4e487b7100000000000000000000000000000000000000000000000000000000600052602160045260246000fd5b14156107ea576107e561091e565b610887565b60016002811115610824577f4e487b7100000000000000000000000000000000000000000000000000000000600052602160045260246000fd5b60008054906101000a900460ff16600281111561086a577f4e487b7100000000000000000000000000000000000000000000000000000000600052602160045260246000fd5b141561087d57610878610a9c565b610886565b610885610b8e565b5b5b34600460003373ffffffffffffffffffffffffffffffffffffffff1673ffffffffffffffffffffffffffffffffffffffff16815260200190815260200160002060008282546108d6919061108a565b9250508190555034600560008282546108ef919061108a565b92505081905550565b600260009054906101000a900473ffffffffffffffffffffffffffffffffffffffff1681565b600360003373ffffffffffffffffffffffffffffffffffffffff1673ffffffffffffffffffffffffffffffffffffffff16815260200190815260200160002060009054906101000a900460ff166109aa576040517f08c379a00000000000000000000000000000000000000000000000000000000081526004016109a190610ffe565b60405180910390fd5b685150ae84a8cdf0000034600460003373ffffffffffffffffffffffffffffffffffffffff1673ffffffffffffffffffffffffffffffffffffffff168152602001908152602001600020546109ff919061108a565b1115610a40576040517f08c379a0000000000000000000000000000000000000000000000000000000008152600401610a3790610fbe565b60405180910390fd5b69032d26d12e980b60000034600554610a59919061108a565b1115610a9a576040517f08c379a0000000000000000000000000000000000000000000000000000000008152600401610a919061101e565b60405180910390fd5b565b683635c9adc5dea0000034600460003373ffffffffffffffffffffffffffffffffffffffff1673ffffffffffffffffffffffffffffffffffffffff16815260200190815260200160002054610af1919061108a565b1115610b32576040517f08c379a0000000000000000000000000000000000000000000000000000000008152600401610b2990610fbe565b60405180910390fd5b69065a4da25d3016c0000034600554610b4b919061108a565b1115610b8c576040517f08c379a0000000000000000000000000000000000000000000000000000000008152600401610b839061101e565b60405180910390fd5b565b6000346005610b9d91906110e0565b9050600060019054906101000a900473ffffffffffffffffffffffffffffffffffffffff1673ffffffffffffffffffffffffffffffffffffffff166323b872dd600160009054906101000a900473ffffffffffffffffffffffffffffffffffffffff1633846040518463ffffffff1660e01b8152600401610c2093929190610f16565b602060405180830381600087803b158015610c3a57600080fd5b505af1158015610c4e573d6000803e3d6000fd5b505050506040513d601f19601f82011682018060405250810190610c729190610cde565b5050565b600081359050610c858161123d565b92915050565b600081519050610c9a8161123d565b92915050565b600081359050610caf81611254565b92915050565b600060208284031215610cc757600080fd5b6000610cd584828501610c76565b91505092915050565b600060208284031215610cf057600080fd5b6000610cfe84828501610c8b565b91505092915050565b600060208284031215610d1957600080fd5b6000610d2784828501610ca0565b91505092915050565b610d398161113a565b82525050565b610d488161114c565b82525050565b610d5781611195565b82525050565b610d66816111b9565b82525050565b6000610d79600683611079565b91507f50415553454400000000000000000000000000000000000000000000000000006000830152602082019050919050565b6000610db9601483611079565b91507f4d41585f494e445f434f4e545249425554494f4e0000000000000000000000006000830152602082019050919050565b6000610df9600c83611079565b91507f4d4f56455f464f525741524400000000000000000000000000000000000000006000830152602082019050919050565b6000610e39601083611079565b91507f4e4f545f4f4e5f57484954454c495354000000000000000000000000000000006000830152602082019050919050565b6000610e79601683611079565b91507f4d41585f544f54414c5f434f4e545249425554494f4e000000000000000000006000830152602082019050919050565b6000610eb9600983611079565b91507f4e4f545f4f574e455200000000000000000000000000000000000000000000006000830152602082019050919050565b610ef58161118b565b82525050565b6000602082019050610f106000830184610d30565b92915050565b6000606082019050610f2b6000830186610d30565b610f386020830185610d30565b610f456040830184610eec565b949350505050565b6000602082019050610f626000830184610d3f565b92915050565b6000602082019050610f7d6000830184610d4e565b92915050565b6000602082019050610f986000830184610d5d565b92915050565b60006020820190508181036000830152610fb781610d6c565b9050919050565b60006020820190508181036000830152610fd781610dac565b9050919050565b60006020820190508181036000830152610ff781610dec565b9050919050565b6000602082019050818103600083015261101781610e2c565b9050919050565b6000602082019050818103600083015261103781610e6c565b9050919050565b6000602082019050818103600083015261105781610eac565b9050919050565b60006020820190506110736000830184610eec565b92915050565b600082825260208201905092915050565b60006110958261118b565b91506110a08361118b565b9250827fffffffffffffffffffffffffffffffffffffffffffffffffffffffffffffffff038211156110d5576110d46111cb565b5b828201905092915050565b60006110eb8261118b565b91506110f68361118b565b9250817fffffffffffffffffffffffffffffffffffffffffffffffffffffffffffffffff048311821515161561112f5761112e6111cb565b5b828202905092915050565b60006111458261116b565b9050919050565b60008115159050919050565b600081905061116682611229565b919050565b600073ffffffffffffffffffffffffffffffffffffffff82169050919050565b6000819050919050565b60006111a0826111a7565b9050919050565b60006111b28261116b565b9050919050565b60006111c482611158565b9050919050565b7f4e487b7100000000000000000000000000000000000000000000000000000000600052601160045260246000fd5b7f4e487b7100000000000000000000000000000000000000000000000000000000600052602160045260246000fd5b6003811061123a576112396111fa565b5b50565b6112468161114c565b811461125157600080fd5b50565b6003811061126157600080fd5b5056fea264697066735822122082a7e546e41ee67a1c7a64a6275c3812903f4f528e009069221b9cbf94c86c9f64736f6c63430008000033",
  "linkReferences": {},
  "deployedLinkReferences": {}
}