{
  "_format": "hh-sol-artifact-1",
  "contractName": "ICO",
  "sourceName": "contracts/ICO.sol",
  "abi": [
    {
      "inputs": [
        {
          "internalType": "address[]",
          "name": "addrs",
          "type": "address[]"
        },
        {
          "internalType": "address",
          "name": "_token",
          "type": "address"
        }
      ],
      "stateMutability": "nonpayable",
      "type": "constructor"
    },
    {
      "inputs": [
        {
          "internalType": "enum ICO.Phase",
          "name": "_phase",
          "type": "uint8"
        }
      ],
      "name": "changePhase",
      "outputs": [],
      "stateMutability": "nonpayable",
      "type": "function"
    },
    {
      "inputs": [],
      "name": "contribute",
      "outputs": [],
      "stateMutability": "payable",
      "type": "function"
    },
    {
      "inputs": [
        {
          "internalType": "uint256",
          "name": "",
          "type": "uint256"
        }
      ],
      "name": "contributors",
      "outputs": [
        {
          "internalType": "address",
          "name": "",
          "type": "address"
        }
      ],
      "stateMutability": "view",
      "type": "function"
    },
    {
      "inputs": [],
      "name": "owner",
      "outputs": [
        {
          "internalType": "address",
          "name": "",
          "type": "address"
        }
      ],
      "stateMutability": "view",
      "type": "function"
    },
    {
      "inputs": [
        {
          "internalType": "bool",
          "name": "_paused",
          "type": "bool"
        }
      ],
      "name": "pause",
      "outputs": [],
      "stateMutability": "nonpayable",
      "type": "function"
    },
    {
      "inputs": [],
      "name": "paused",
      "outputs": [
        {
          "internalType": "bool",
          "name": "",
          "type": "bool"
        }
      ],
      "stateMutability": "view",
      "type": "function"
    },
    {
      "inputs": [],
      "name": "phase",
      "outputs": [
        {
          "internalType": "enum ICO.Phase",
          "name": "",
          "type": "uint8"
        }
      ],
      "stateMutability": "view",
      "type": "function"
    },
    {
      "inputs": [],
      "name": "spcOwner",
      "outputs": [
        {
          "internalType": "address",
          "name": "",
          "type": "address"
        }
      ],
      "stateMutability": "view",
      "type": "function"
    },
    {
      "inputs": [],
      "name": "spcToken",
      "outputs": [
        {
          "internalType": "contract IERC20",
          "name": "",
          "type": "address"
        }
      ],
      "stateMutability": "view",
      "type": "function"
    },
    {
      "inputs": [],
      "name": "total",
      "outputs": [
        {
          "internalType": "uint256",
          "name": "",
          "type": "uint256"
        }
      ],
      "stateMutability": "view",
      "type": "function"
    },
    {
      "inputs": [],
      "name": "withdraw",
      "outputs": [],
      "stateMutability": "nonpayable",
      "type": "function"
    }
  ],
  "bytecode": "0x60806040523480156200001157600080fd5b50604051620017fa380380620017fa833981810160405281019062000037919062000237565b33600160006101000a81548173ffffffffffffffffffffffffffffffffffffffff021916908373ffffffffffffffffffffffffffffffffffffffff16021790555060005b82518110156200013457600160046000858481518110620000c5577f4e487b7100000000000000000000000000000000000000000000000000000000600052603260045260246000fd5b602002602001015173ffffffffffffffffffffffffffffffffffffffff1673ffffffffffffffffffffffffffffffffffffffff16815260200190815260200160002060006101000a81548160ff02191690831515021790555080806200012b9062000332565b9150506200007b565b5080600060016101000a81548173ffffffffffffffffffffffffffffffffffffffff021916908373ffffffffffffffffffffffffffffffffffffffff1602179055505050620003f8565b6000620001956200018f84620002c5565b62000291565b90508083825260208201905082856020860282011115620001b557600080fd5b60005b85811015620001e95781620001ce8882620001f3565b845260208401935060208301925050600181019050620001b8565b5050509392505050565b6000815190506200020481620003de565b92915050565b600082601f8301126200021c57600080fd5b81516200022e8482602086016200017e565b91505092915050565b600080604083850312156200024b57600080fd5b600083015167ffffffffffffffff8111156200026657600080fd5b62000274858286016200020a565b92505060206200028785828601620001f3565b9150509250929050565b6000604051905081810181811067ffffffffffffffff82111715620002bb57620002ba620003af565b5b8060405250919050565b600067ffffffffffffffff821115620002e357620002e2620003af565b5b602082029050602081019050919050565b6000620003018262000308565b9050919050565b600073ffffffffffffffffffffffffffffffffffffffff82169050919050565b6000819050919050565b60006200033f8262000328565b91507fffffffffffffffffffffffffffffffffffffffffffffffffffffffffffffffff82141562000375576200037462000380565b5b600182019050919050565b7f4e487b7100000000000000000000000000000000000000000000000000000000600052601160045260246000fd5b7f4e487b7100000000000000000000000000000000000000000000000000000000600052604160045260246000fd5b620003e981620002f4565b8114620003f557600080fd5b50565b6113f280620004086000396000f3fe60806040526004361061009c5760003560e01c806359f885b01161006457806359f885b0146101725780635c975abb1461019d5780638da5cb5b146101c8578063b1c9fe6e146101f3578063d7bb99ba1461021e578063fe878533146102285761009c565b806302329a29146100a15780630721c297146100ca5780632ddbd13a146100f35780633cb5d1001461011e5780633ccfd60b1461015b575b600080fd5b3480156100ad57600080fd5b506100c860048036038101906100c39190610dcd565b610253565b005b3480156100d657600080fd5b506100f160048036038101906100ec9190610e1f565b610300565b005b3480156100ff57600080fd5b506101086104a1565b604051610115919061119f565b60405180910390f35b34801561012a57600080fd5b5061014560048036038101906101409190610e48565b6104a7565b604051610152919061103c565b60405180910390f35b34801561016757600080fd5b506101706104e6565b005b34801561017e57600080fd5b5061018761068d565b60405161019491906110a9565b60405180910390f35b3480156101a957600080fd5b506101b26106b3565b6040516101bf919061108e565b60405180910390f35b3480156101d457600080fd5b506101dd6106c6565b6040516101ea919061103c565b60405180910390f35b3480156101ff57600080fd5b506102086106ec565b60405161021591906110c4565b60405180910390f35b6102266106fd565b005b34801561023457600080fd5b5061023d6109fb565b60405161024a919061103c565b60405180910390f35b600160009054906101000a900473ffffffffffffffffffffffffffffffffffffffff1673ffffffffffffffffffffffffffffffffffffffff163373ffffffffffffffffffffffffffffffffffffffff16146102e3576040517f08c379a00000000000000000000000000000000000000000000000000000000081526004016102da9061117f565b60405180910390fd5b80600060156101000a81548160ff02191690831515021790555050565b600160009054906101000a900473ffffffffffffffffffffffffffffffffffffffff1673ffffffffffffffffffffffffffffffffffffffff163373ffffffffffffffffffffffffffffffffffffffff1614610390576040517f08c379a00000000000000000000000000000000000000000000000000000000081526004016103879061117f565b60405180910390fd5b60008054906101000a900460ff1660028111156103d6577f4e487b7100000000000000000000000000000000000000000000000000000000600052602160045260246000fd5b81600281111561040f577f4e487b7100000000000000000000000000000000000000000000000000000000600052602160045260246000fd5b1161044f576040517f08c379a00000000000000000000000000000000000000000000000000000000081526004016104469061111f565b60405180910390fd5b806000806101000a81548160ff02191690836002811115610499577f4e487b7100000000000000000000000000000000000000000000000000000000600052602160045260246000fd5b021790555050565b60075481565b600381815481106104b757600080fd5b906000526020600020016000915054906101000a900473ffffffffffffffffffffffffffffffffffffffff1681565b60028081111561051f577f4e487b7100000000000000000000000000000000000000000000000000000000600052602160045260246000fd5b60008054906101000a900460ff166002811115610565577f4e487b7100000000000000000000000000000000000000000000000000000000600052602160045260246000fd5b141561068b57600060019054906101000a900473ffffffffffffffffffffffffffffffffffffffff1673ffffffffffffffffffffffffffffffffffffffff166323b872dd600160009054906101000a900473ffffffffffffffffffffffffffffffffffffffff1633600560003373ffffffffffffffffffffffffffffffffffffffff1673ffffffffffffffffffffffffffffffffffffffff1681526020019081526020016000205460056106199190611221565b6040518463ffffffff1660e01b815260040161063793929190611057565b602060405180830381600087803b15801561065157600080fd5b505af1158015610665573d6000803e3d6000fd5b505050506040513d601f19601f820116820180604052508101906106899190610df6565b505b565b600060019054906101000a900473ffffffffffffffffffffffffffffffffffffffff1681565b600060159054906101000a900460ff1681565b600160009054906101000a900473ffffffffffffffffffffffffffffffffffffffff1681565b60008054906101000a900460ff1681565b600060159054906101000a900460ff161561074d576040517f08c379a0000000000000000000000000000000000000000000000000000000008152600401610744906110df565b60405180910390fd5b60006002811115610787577f4e487b7100000000000000000000000000000000000000000000000000000000600052602160045260246000fd5b60008054906101000a900460ff1660028111156107cd577f4e487b7100000000000000000000000000000000000000000000000000000000600052602160045260246000fd5b14156107e0576107db610a21565b61087d565b6001600281111561081a577f4e487b7100000000000000000000000000000000000000000000000000000000600052602160045260246000fd5b60008054906101000a900460ff166002811115610860577f4e487b7100000000000000000000000000000000000000000000000000000000600052602160045260246000fd5b14156108735761086e610b9f565b61087c565b61087b610c91565b5b5b34600560003373ffffffffffffffffffffffffffffffffffffffff1673ffffffffffffffffffffffffffffffffffffffff16815260200190815260200160002060008282546108cc91906111cb565b9250508190555034600760008282546108e591906111cb565b92505081905550600660003373ffffffffffffffffffffffffffffffffffffffff1673ffffffffffffffffffffffffffffffffffffffff16815260200190815260200160002060009054906101000a900460ff166109f9576001600660003373ffffffffffffffffffffffffffffffffffffffff1673ffffffffffffffffffffffffffffffffffffffff16815260200190815260200160002060006101000a81548160ff0219169083151502179055506003339080600181540180825580915050600190039060005260206000200160009091909190916101000a81548173ffffffffffffffffffffffffffffffffffffffff021916908373ffffffffffffffffffffffffffffffffffffffff1602179055505b565b600260009054906101000a900473ffffffffffffffffffffffffffffffffffffffff1681565b600460003373ffffffffffffffffffffffffffffffffffffffff1673ffffffffffffffffffffffffffffffffffffffff16815260200190815260200160002060009054906101000a900460ff16610aad576040517f08c379a0000000000000000000000000000000000000000000000000000000008152600401610aa49061113f565b60405180910390fd5b685150ae84a8cdf0000034600560003373ffffffffffffffffffffffffffffffffffffffff1673ffffffffffffffffffffffffffffffffffffffff16815260200190815260200160002054610b0291906111cb565b1115610b43576040517f08c379a0000000000000000000000000000000000000000000000000000000008152600401610b3a906110ff565b60405180910390fd5b69032d26d12e980b60000034600754610b5c91906111cb565b1115610b9d576040517f08c379a0000000000000000000000000000000000000000000000000000000008152600401610b949061115f565b60405180910390fd5b565b683635c9adc5dea0000034600560003373ffffffffffffffffffffffffffffffffffffffff1673ffffffffffffffffffffffffffffffffffffffff16815260200190815260200160002054610bf491906111cb565b1115610c35576040517f08c379a0000000000000000000000000000000000000000000000000000000008152600401610c2c906110ff565b60405180910390fd5b69065a4da25d3016c0000034600754610c4e91906111cb565b1115610c8f576040517f08c379a0000000000000000000000000000000000000000000000000000000008152600401610c869061115f565b60405180910390fd5b565b6000346005610ca09190611221565b9050600060019054906101000a900473ffffffffffffffffffffffffffffffffffffffff1673ffffffffffffffffffffffffffffffffffffffff166323b872dd600160009054906101000a900473ffffffffffffffffffffffffffffffffffffffff1633846040518463ffffffff1660e01b8152600401610d2393929190611057565b602060405180830381600087803b158015610d3d57600080fd5b505af1158015610d51573d6000803e3d6000fd5b505050506040513d601f19601f82011682018060405250810190610d759190610df6565b5050565b600081359050610d888161137e565b92915050565b600081519050610d9d8161137e565b92915050565b600081359050610db281611395565b92915050565b600081359050610dc7816113a5565b92915050565b600060208284031215610ddf57600080fd5b6000610ded84828501610d79565b91505092915050565b600060208284031215610e0857600080fd5b6000610e1684828501610d8e565b91505092915050565b600060208284031215610e3157600080fd5b6000610e3f84828501610da3565b91505092915050565b600060208284031215610e5a57600080fd5b6000610e6884828501610db8565b91505092915050565b610e7a8161127b565b82525050565b610e898161128d565b82525050565b610e98816112d6565b82525050565b610ea7816112fa565b82525050565b6000610eba6006836111ba565b91507f50415553454400000000000000000000000000000000000000000000000000006000830152602082019050919050565b6000610efa6014836111ba565b91507f4d41585f494e445f434f4e545249425554494f4e0000000000000000000000006000830152602082019050919050565b6000610f3a600c836111ba565b91507f4d4f56455f464f525741524400000000000000000000000000000000000000006000830152602082019050919050565b6000610f7a6010836111ba565b91507f4e4f545f4f4e5f57484954454c495354000000000000000000000000000000006000830152602082019050919050565b6000610fba6016836111ba565b91507f4d41585f544f54414c5f434f4e545249425554494f4e000000000000000000006000830152602082019050919050565b6000610ffa6009836111ba565b91507f4e4f545f4f574e455200000000000000000000000000000000000000000000006000830152602082019050919050565b611036816112cc565b82525050565b60006020820190506110516000830184610e71565b92915050565b600060608201905061106c6000830186610e71565b6110796020830185610e71565b611086604083018461102d565b949350505050565b60006020820190506110a36000830184610e80565b92915050565b60006020820190506110be6000830184610e8f565b92915050565b60006020820190506110d96000830184610e9e565b92915050565b600060208201905081810360008301526110f881610ead565b9050919050565b6000602082019050818103600083015261111881610eed565b9050919050565b6000602082019050818103600083015261113881610f2d565b9050919050565b6000602082019050818103600083015261115881610f6d565b9050919050565b6000602082019050818103600083015261117881610fad565b9050919050565b6000602082019050818103600083015261119881610fed565b9050919050565b60006020820190506111b4600083018461102d565b92915050565b600082825260208201905092915050565b60006111d6826112cc565b91506111e1836112cc565b9250827fffffffffffffffffffffffffffffffffffffffffffffffffffffffffffffffff038211156112165761121561130c565b5b828201905092915050565b600061122c826112cc565b9150611237836112cc565b9250817fffffffffffffffffffffffffffffffffffffffffffffffffffffffffffffffff04831182151516156112705761126f61130c565b5b828202905092915050565b6000611286826112ac565b9050919050565b60008115159050919050565b60008190506112a78261136a565b919050565b600073ffffffffffffffffffffffffffffffffffffffff82169050919050565b6000819050919050565b60006112e1826112e8565b9050919050565b60006112f3826112ac565b9050919050565b600061130582611299565b9050919050565b7f4e487b7100000000000000000000000000000000000000000000000000000000600052601160045260246000fd5b7f4e487b7100000000000000000000000000000000000000000000000000000000600052602160045260246000fd5b6003811061137b5761137a61133b565b5b50565b6113878161128d565b811461139257600080fd5b50565b600381106113a257600080fd5b50565b6113ae816112cc565b81146113b957600080fd5b5056fea2646970667358221220f87306f799446e6f44292612ddd33702a363f90d19ed64bd36f5cbccf4936bc464736f6c63430008000033",
  "linkReferences": {},
  "deployedLinkReferences": {}
}