{
  "_format": "hh-sol-artifact-1",
  "contractName": "ICO",
  "sourceName": "contracts/ICO.sol",
  "abi": [
    {
      "inputs": [
        {
          "internalType": "address[]",
          "name": "addrs",
          "type": "address[]"
        },
        {
          "internalType": "address",
          "name": "_token",
          "type": "address"
        }
      ],
      "stateMutability": "nonpayable",
      "type": "constructor"
    },
    {
      "inputs": [
        {
          "internalType": "enum ICO.Phase",
          "name": "_phase",
          "type": "uint8"
        }
      ],
      "name": "changePhase",
      "outputs": [],
      "stateMutability": "nonpayable",
      "type": "function"
    },
    {
      "inputs": [],
      "name": "contribute",
      "outputs": [],
      "stateMutability": "payable",
      "type": "function"
    },
    {
      "inputs": [
        {
          "internalType": "uint256",
          "name": "",
          "type": "uint256"
        }
      ],
      "name": "contributors",
      "outputs": [
        {
          "internalType": "address",
          "name": "",
          "type": "address"
        }
      ],
      "stateMutability": "view",
      "type": "function"
    },
    {
      "inputs": [],
      "name": "owner",
      "outputs": [
        {
          "internalType": "address",
          "name": "",
          "type": "address"
        }
      ],
      "stateMutability": "view",
      "type": "function"
    },
    {
      "inputs": [
        {
          "internalType": "bool",
          "name": "_paused",
          "type": "bool"
        }
      ],
      "name": "pause",
      "outputs": [],
      "stateMutability": "nonpayable",
      "type": "function"
    },
    {
      "inputs": [],
      "name": "paused",
      "outputs": [
        {
          "internalType": "bool",
          "name": "",
          "type": "bool"
        }
      ],
      "stateMutability": "view",
      "type": "function"
    },
    {
      "inputs": [],
      "name": "phase",
      "outputs": [
        {
          "internalType": "enum ICO.Phase",
          "name": "",
          "type": "uint8"
        }
      ],
      "stateMutability": "view",
      "type": "function"
    },
    {
      "inputs": [],
      "name": "spcOwner",
      "outputs": [
        {
          "internalType": "address",
          "name": "",
          "type": "address"
        }
      ],
      "stateMutability": "view",
      "type": "function"
    },
    {
      "inputs": [],
      "name": "spcToken",
      "outputs": [
        {
          "internalType": "contract IERC20",
          "name": "",
          "type": "address"
        }
      ],
      "stateMutability": "view",
      "type": "function"
    },
    {
      "inputs": [],
      "name": "total",
      "outputs": [
        {
          "internalType": "uint256",
          "name": "",
          "type": "uint256"
        }
      ],
      "stateMutability": "view",
      "type": "function"
    }
  ],
  "bytecode": "0x60806040523480156200001157600080fd5b506040516200191538038062001915833981810160405281019062000037919062000237565b33600160006101000a81548173ffffffffffffffffffffffffffffffffffffffff021916908373ffffffffffffffffffffffffffffffffffffffff16021790555060005b82518110156200013457600160046000858481518110620000c5577f4e487b7100000000000000000000000000000000000000000000000000000000600052603260045260246000fd5b602002602001015173ffffffffffffffffffffffffffffffffffffffff1673ffffffffffffffffffffffffffffffffffffffff16815260200190815260200160002060006101000a81548160ff02191690831515021790555080806200012b9062000332565b9150506200007b565b5080600060016101000a81548173ffffffffffffffffffffffffffffffffffffffff021916908373ffffffffffffffffffffffffffffffffffffffff1602179055505050620003f8565b6000620001956200018f84620002c5565b62000291565b90508083825260208201905082856020860282011115620001b557600080fd5b60005b85811015620001e95781620001ce8882620001f3565b845260208401935060208301925050600181019050620001b8565b5050509392505050565b6000815190506200020481620003de565b92915050565b600082601f8301126200021c57600080fd5b81516200022e8482602086016200017e565b91505092915050565b600080604083850312156200024b57600080fd5b600083015167ffffffffffffffff8111156200026657600080fd5b62000274858286016200020a565b92505060206200028785828601620001f3565b9150509250929050565b6000604051905081810181811067ffffffffffffffff82111715620002bb57620002ba620003af565b5b8060405250919050565b600067ffffffffffffffff821115620002e357620002e2620003af565b5b602082029050602081019050919050565b6000620003018262000308565b9050919050565b600073ffffffffffffffffffffffffffffffffffffffff82169050919050565b6000819050919050565b60006200033f8262000328565b91507fffffffffffffffffffffffffffffffffffffffffffffffffffffffffffffffff82141562000375576200037462000380565b5b600182019050919050565b7f4e487b7100000000000000000000000000000000000000000000000000000000600052601160045260246000fd5b7f4e487b7100000000000000000000000000000000000000000000000000000000600052604160045260246000fd5b620003e981620002f4565b8114620003f557600080fd5b50565b61150d80620004086000396000f3fe6080604052600436106100915760003560e01c80635c975abb116100595780635c975abb1461017b5780638da5cb5b146101a6578063b1c9fe6e146101d1578063d7bb99ba146101fc578063fe8785331461020657610091565b806302329a29146100965780630721c297146100bf5780632ddbd13a146100e85780633cb5d1001461011357806359f885b014610150575b600080fd5b3480156100a257600080fd5b506100bd60048036038101906100b89190610e9f565b610231565b005b3480156100cb57600080fd5b506100e660048036038101906100e19190610ef1565b6102de565b005b3480156100f457600080fd5b506100fd61050d565b60405161010a9190611271565b60405180910390f35b34801561011f57600080fd5b5061013a60048036038101906101359190610f1a565b610513565b604051610147919061110e565b60405180910390f35b34801561015c57600080fd5b50610165610552565b604051610172919061117b565b60405180910390f35b34801561018757600080fd5b50610190610578565b60405161019d9190611160565b60405180910390f35b3480156101b257600080fd5b506101bb61058b565b6040516101c8919061110e565b60405180910390f35b3480156101dd57600080fd5b506101e66105b1565b6040516101f39190611196565b60405180910390f35b6102046105c2565b005b34801561021257600080fd5b5061021b6108c0565b604051610228919061110e565b60405180910390f35b600160009054906101000a900473ffffffffffffffffffffffffffffffffffffffff1673ffffffffffffffffffffffffffffffffffffffff163373ffffffffffffffffffffffffffffffffffffffff16146102c1576040517f08c379a00000000000000000000000000000000000000000000000000000000081526004016102b890611251565b60405180910390fd5b80600060156101000a81548160ff02191690831515021790555050565b600160009054906101000a900473ffffffffffffffffffffffffffffffffffffffff1673ffffffffffffffffffffffffffffffffffffffff163373ffffffffffffffffffffffffffffffffffffffff161461036e576040517f08c379a000000000000000000000000000000000000000000000000000000000815260040161036590611251565b60405180910390fd5b60008054906101000a900460ff1660028111156103b4577f4e487b7100000000000000000000000000000000000000000000000000000000600052602160045260246000fd5b8160028111156103ed577f4e487b7100000000000000000000000000000000000000000000000000000000600052602160045260246000fd5b1161042d576040517f08c379a0000000000000000000000000000000000000000000000000000000008152600401610424906111d1565b60405180910390fd5b806000806101000a81548160ff02191690836002811115610477577f4e487b7100000000000000000000000000000000000000000000000000000000600052602160045260246000fd5b02179055506002808111156104b5577f4e487b7100000000000000000000000000000000000000000000000000000000600052602160045260246000fd5b60008054906101000a900460ff1660028111156104fb577f4e487b7100000000000000000000000000000000000000000000000000000000600052602160045260246000fd5b141561050a576105096108e6565b5b50565b60075481565b6003818154811061052357600080fd5b906000526020600020016000915054906101000a900473ffffffffffffffffffffffffffffffffffffffff1681565b600060019054906101000a900473ffffffffffffffffffffffffffffffffffffffff1681565b600060159054906101000a900460ff1681565b600160009054906101000a900473ffffffffffffffffffffffffffffffffffffffff1681565b60008054906101000a900460ff1681565b600060159054906101000a900460ff1615610612576040517f08c379a0000000000000000000000000000000000000000000000000000000008152600401610609906111b1565b60405180910390fd5b6000600281111561064c577f4e487b7100000000000000000000000000000000000000000000000000000000600052602160045260246000fd5b60008054906101000a900460ff166002811115610692577f4e487b7100000000000000000000000000000000000000000000000000000000600052602160045260246000fd5b14156106a5576106a0610af3565b610742565b600160028111156106df577f4e487b7100000000000000000000000000000000000000000000000000000000600052602160045260246000fd5b60008054906101000a900460ff166002811115610725577f4e487b7100000000000000000000000000000000000000000000000000000000600052602160045260246000fd5b141561073857610733610c71565b610741565b610740610d63565b5b5b34600560003373ffffffffffffffffffffffffffffffffffffffff1673ffffffffffffffffffffffffffffffffffffffff1681526020019081526020016000206000828254610791919061129d565b9250508190555034600760008282546107aa919061129d565b92505081905550600660003373ffffffffffffffffffffffffffffffffffffffff1673ffffffffffffffffffffffffffffffffffffffff16815260200190815260200160002060009054906101000a900460ff166108be576001600660003373ffffffffffffffffffffffffffffffffffffffff1673ffffffffffffffffffffffffffffffffffffffff16815260200190815260200160002060006101000a81548160ff0219169083151502179055506003339080600181540180825580915050600190039060005260206000200160009091909190916101000a81548173ffffffffffffffffffffffffffffffffffffffff021916908373ffffffffffffffffffffffffffffffffffffffff1602179055505b565b600260009054906101000a900473ffffffffffffffffffffffffffffffffffffffff1681565b60005b600380549050811015610af057600060019054906101000a900473ffffffffffffffffffffffffffffffffffffffff1673ffffffffffffffffffffffffffffffffffffffff166323b872dd600160009054906101000a900473ffffffffffffffffffffffffffffffffffffffff1660038481548110610991577f4e487b7100000000000000000000000000000000000000000000000000000000600052603260045260246000fd5b9060005260206000200160009054906101000a900473ffffffffffffffffffffffffffffffffffffffff1660056000600387815481106109fa577f4e487b7100000000000000000000000000000000000000000000000000000000600052603260045260246000fd5b9060005260206000200160009054906101000a900473ffffffffffffffffffffffffffffffffffffffff1673ffffffffffffffffffffffffffffffffffffffff1673ffffffffffffffffffffffffffffffffffffffff168152602001908152602001600020546005610a6c91906112f3565b6040518463ffffffff1660e01b8152600401610a8a93929190611129565b602060405180830381600087803b158015610aa457600080fd5b505af1158015610ab8573d6000803e3d6000fd5b505050506040513d601f19601f82011682018060405250810190610adc9190610ec8565b508080610ae8906113de565b9150506108e9565b50565b600460003373ffffffffffffffffffffffffffffffffffffffff1673ffffffffffffffffffffffffffffffffffffffff16815260200190815260200160002060009054906101000a900460ff16610b7f576040517f08c379a0000000000000000000000000000000000000000000000000000000008152600401610b7690611211565b60405180910390fd5b685150ae84a8cdf0000034600560003373ffffffffffffffffffffffffffffffffffffffff1673ffffffffffffffffffffffffffffffffffffffff16815260200190815260200160002054610bd4919061129d565b1115610c15576040517f08c379a0000000000000000000000000000000000000000000000000000000008152600401610c0c906111f1565b60405180910390fd5b69032d26d12e980b60000034600754610c2e919061129d565b1115610c6f576040517f08c379a0000000000000000000000000000000000000000000000000000000008152600401610c6690611231565b60405180910390fd5b565b683635c9adc5dea0000034600560003373ffffffffffffffffffffffffffffffffffffffff1673ffffffffffffffffffffffffffffffffffffffff16815260200190815260200160002054610cc6919061129d565b1115610d07576040517f08c379a0000000000000000000000000000000000000000000000000000000008152600401610cfe906111f1565b60405180910390fd5b69065a4da25d3016c0000034600754610d20919061129d565b1115610d61576040517f08c379a0000000000000000000000000000000000000000000000000000000008152600401610d5890611231565b60405180910390fd5b565b6000346005610d7291906112f3565b9050600060019054906101000a900473ffffffffffffffffffffffffffffffffffffffff1673ffffffffffffffffffffffffffffffffffffffff166323b872dd600160009054906101000a900473ffffffffffffffffffffffffffffffffffffffff1633846040518463ffffffff1660e01b8152600401610df593929190611129565b602060405180830381600087803b158015610e0f57600080fd5b505af1158015610e23573d6000803e3d6000fd5b505050506040513d601f19601f82011682018060405250810190610e479190610ec8565b5050565b600081359050610e5a81611499565b92915050565b600081519050610e6f81611499565b92915050565b600081359050610e84816114b0565b92915050565b600081359050610e99816114c0565b92915050565b600060208284031215610eb157600080fd5b6000610ebf84828501610e4b565b91505092915050565b600060208284031215610eda57600080fd5b6000610ee884828501610e60565b91505092915050565b600060208284031215610f0357600080fd5b6000610f1184828501610e75565b91505092915050565b600060208284031215610f2c57600080fd5b6000610f3a84828501610e8a565b91505092915050565b610f4c8161134d565b82525050565b610f5b8161135f565b82525050565b610f6a816113a8565b82525050565b610f79816113cc565b82525050565b6000610f8c60068361128c565b91507f50415553454400000000000000000000000000000000000000000000000000006000830152602082019050919050565b6000610fcc600c8361128c565b91507f4d4f56455f464f575241524400000000000000000000000000000000000000006000830152602082019050919050565b600061100c60148361128c565b91507f4d41585f494e445f434f4e545249425554494f4e0000000000000000000000006000830152602082019050919050565b600061104c60108361128c565b91507f4e4f545f4f4e5f57484954454c495354000000000000000000000000000000006000830152602082019050919050565b600061108c60168361128c565b91507f4d41585f544f54414c5f434f4e545249425554494f4e000000000000000000006000830152602082019050919050565b60006110cc60098361128c565b91507f4e4f545f4f574e455200000000000000000000000000000000000000000000006000830152602082019050919050565b6111088161139e565b82525050565b60006020820190506111236000830184610f43565b92915050565b600060608201905061113e6000830186610f43565b61114b6020830185610f43565b61115860408301846110ff565b949350505050565b60006020820190506111756000830184610f52565b92915050565b60006020820190506111906000830184610f61565b92915050565b60006020820190506111ab6000830184610f70565b92915050565b600060208201905081810360008301526111ca81610f7f565b9050919050565b600060208201905081810360008301526111ea81610fbf565b9050919050565b6000602082019050818103600083015261120a81610fff565b9050919050565b6000602082019050818103600083015261122a8161103f565b9050919050565b6000602082019050818103600083015261124a8161107f565b9050919050565b6000602082019050818103600083015261126a816110bf565b9050919050565b600060208201905061128660008301846110ff565b92915050565b600082825260208201905092915050565b60006112a88261139e565b91506112b38361139e565b9250827fffffffffffffffffffffffffffffffffffffffffffffffffffffffffffffffff038211156112e8576112e7611427565b5b828201905092915050565b60006112fe8261139e565b91506113098361139e565b9250817fffffffffffffffffffffffffffffffffffffffffffffffffffffffffffffffff048311821515161561134257611341611427565b5b828202905092915050565b60006113588261137e565b9050919050565b60008115159050919050565b600081905061137982611485565b919050565b600073ffffffffffffffffffffffffffffffffffffffff82169050919050565b6000819050919050565b60006113b3826113ba565b9050919050565b60006113c58261137e565b9050919050565b60006113d78261136b565b9050919050565b60006113e98261139e565b91507fffffffffffffffffffffffffffffffffffffffffffffffffffffffffffffffff82141561141c5761141b611427565b5b600182019050919050565b7f4e487b7100000000000000000000000000000000000000000000000000000000600052601160045260246000fd5b7f4e487b7100000000000000000000000000000000000000000000000000000000600052602160045260246000fd5b6003811061149657611495611456565b5b50565b6114a28161135f565b81146114ad57600080fd5b50565b600381106114bd57600080fd5b50565b6114c98161139e565b81146114d457600080fd5b5056fea26469706673582212201e0943678cc651e0b25b686c5e673e52a5ccf100a4be66f932cf22be9bd4cb1064736f6c63430008000033",
  "linkReferences": {},
  "deployedLinkReferences": {}
}