{
  "_format": "hh-sol-artifact-1",
  "contractName": "ICO",
  "sourceName": "contracts/ICO.sol",
  "abi": [
    {
      "inputs": [
        {
          "internalType": "address[]",
          "name": "addrs",
          "type": "address[]"
        },
        {
          "internalType": "address",
          "name": "_token",
          "type": "address"
        }
      ],
      "stateMutability": "nonpayable",
      "type": "constructor"
    },
    {
      "inputs": [
        {
          "internalType": "enum ICO.Phase",
          "name": "_phase",
          "type": "uint8"
        }
      ],
      "name": "changePhase",
      "outputs": [],
      "stateMutability": "nonpayable",
      "type": "function"
    },
    {
      "inputs": [],
      "name": "contribute",
      "outputs": [],
      "stateMutability": "payable",
      "type": "function"
    },
    {
      "inputs": [],
      "name": "owner",
      "outputs": [
        {
          "internalType": "address",
          "name": "",
          "type": "address"
        }
      ],
      "stateMutability": "view",
      "type": "function"
    },
    {
      "inputs": [
        {
          "internalType": "bool",
          "name": "_paused",
          "type": "bool"
        }
      ],
      "name": "pause",
      "outputs": [],
      "stateMutability": "nonpayable",
      "type": "function"
    },
    {
      "inputs": [],
      "name": "paused",
      "outputs": [
        {
          "internalType": "bool",
          "name": "",
          "type": "bool"
        }
      ],
      "stateMutability": "view",
      "type": "function"
    },
    {
      "inputs": [],
      "name": "phase",
      "outputs": [
        {
          "internalType": "enum ICO.Phase",
          "name": "",
          "type": "uint8"
        }
      ],
      "stateMutability": "view",
      "type": "function"
    },
    {
      "inputs": [],
      "name": "spcOwner",
      "outputs": [
        {
          "internalType": "address",
          "name": "",
          "type": "address"
        }
      ],
      "stateMutability": "view",
      "type": "function"
    },
    {
      "inputs": [],
      "name": "spcToken",
      "outputs": [
        {
          "internalType": "contract IERC20",
          "name": "",
          "type": "address"
        }
      ],
      "stateMutability": "view",
      "type": "function"
    },
    {
      "inputs": [],
      "name": "total",
      "outputs": [
        {
          "internalType": "uint256",
          "name": "",
          "type": "uint256"
        }
      ],
      "stateMutability": "view",
      "type": "function"
    },
    {
      "inputs": [],
      "name": "withdraw",
      "outputs": [],
      "stateMutability": "nonpayable",
      "type": "function"
    }
  ],
  "bytecode": "0x60806040523480156200001157600080fd5b506040516200173b3803806200173b833981810160405281019062000037919062000237565b33600160006101000a81548173ffffffffffffffffffffffffffffffffffffffff021916908373ffffffffffffffffffffffffffffffffffffffff16021790555060005b82518110156200013457600160036000858481518110620000c5577f4e487b7100000000000000000000000000000000000000000000000000000000600052603260045260246000fd5b602002602001015173ffffffffffffffffffffffffffffffffffffffff1673ffffffffffffffffffffffffffffffffffffffff16815260200190815260200160002060006101000a81548160ff02191690831515021790555080806200012b9062000332565b9150506200007b565b5080600060016101000a81548173ffffffffffffffffffffffffffffffffffffffff021916908373ffffffffffffffffffffffffffffffffffffffff1602179055505050620003f8565b6000620001956200018f84620002c5565b62000291565b90508083825260208201905082856020860282011115620001b557600080fd5b60005b85811015620001e95781620001ce8882620001f3565b845260208401935060208301925050600181019050620001b8565b5050509392505050565b6000815190506200020481620003de565b92915050565b600082601f8301126200021c57600080fd5b81516200022e8482602086016200017e565b91505092915050565b600080604083850312156200024b57600080fd5b600083015167ffffffffffffffff8111156200026657600080fd5b62000274858286016200020a565b92505060206200028785828601620001f3565b9150509250929050565b6000604051905081810181811067ffffffffffffffff82111715620002bb57620002ba620003af565b5b8060405250919050565b600067ffffffffffffffff821115620002e357620002e2620003af565b5b602082029050602081019050919050565b6000620003018262000308565b9050919050565b600073ffffffffffffffffffffffffffffffffffffffff82169050919050565b6000819050919050565b60006200033f8262000328565b91507fffffffffffffffffffffffffffffffffffffffffffffffffffffffffffffffff82141562000375576200037462000380565b5b600182019050919050565b7f4e487b7100000000000000000000000000000000000000000000000000000000600052601160045260246000fd5b7f4e487b7100000000000000000000000000000000000000000000000000000000600052604160045260246000fd5b620003e981620002f4565b8114620003f557600080fd5b50565b61133380620004086000396000f3fe6080604052600436106100915760003560e01c80635c975abb116100595780635c975abb146101555780638da5cb5b14610180578063b1c9fe6e146101ab578063d7bb99ba146101d6578063fe878533146101e057610091565b806302329a29146100965780630721c297146100bf5780632ddbd13a146100e85780633ccfd60b1461011357806359f885b01461012a575b600080fd5b3480156100a257600080fd5b506100bd60048036038101906100b89190610cee565b61020b565b005b3480156100cb57600080fd5b506100e660048036038101906100e19190610d40565b6102b8565b005b3480156100f457600080fd5b506100fd610459565b60405161010a91906110f7565b60405180910390f35b34801561011f57600080fd5b5061012861045f565b005b34801561013657600080fd5b5061013f6106d0565b60405161014c9190610fe1565b60405180910390f35b34801561016157600080fd5b5061016a6106f6565b6040516101779190610fc6565b60405180910390f35b34801561018c57600080fd5b50610195610709565b6040516101a29190610f74565b60405180910390f35b3480156101b757600080fd5b506101c061072f565b6040516101cd9190610ffc565b60405180910390f35b6101de610740565b005b3480156101ec57600080fd5b506101f5610931565b6040516102029190610f74565b60405180910390f35b600160009054906101000a900473ffffffffffffffffffffffffffffffffffffffff1673ffffffffffffffffffffffffffffffffffffffff163373ffffffffffffffffffffffffffffffffffffffff161461029b576040517f08c379a0000000000000000000000000000000000000000000000000000000008152600401610292906110b7565b60405180910390fd5b80600060156101000a81548160ff02191690831515021790555050565b600160009054906101000a900473ffffffffffffffffffffffffffffffffffffffff1673ffffffffffffffffffffffffffffffffffffffff163373ffffffffffffffffffffffffffffffffffffffff1614610348576040517f08c379a000000000000000000000000000000000000000000000000000000000815260040161033f906110b7565b60405180910390fd5b60008054906101000a900460ff16600281111561038e577f4e487b7100000000000000000000000000000000000000000000000000000000600052602160045260246000fd5b8160028111156103c7577f4e487b7100000000000000000000000000000000000000000000000000000000600052602160045260246000fd5b11610407576040517f08c379a00000000000000000000000000000000000000000000000000000000081526004016103fe90611057565b60405180910390fd5b806000806101000a81548160ff02191690836002811115610451577f4e487b7100000000000000000000000000000000000000000000000000000000600052602160045260246000fd5b021790555050565b60055481565b6000600460003373ffffffffffffffffffffffffffffffffffffffff1673ffffffffffffffffffffffffffffffffffffffff16815260200190815260200160002054116104ab57600080fd5b6002808111156104e4577f4e487b7100000000000000000000000000000000000000000000000000000000600052602160045260246000fd5b60008054906101000a900460ff16600281111561052a577f4e487b7100000000000000000000000000000000000000000000000000000000600052602160045260246000fd5b1461056a576040517f08c379a0000000000000000000000000000000000000000000000000000000008152600401610561906110d7565b60405180910390fd5b600060019054906101000a900473ffffffffffffffffffffffffffffffffffffffff1673ffffffffffffffffffffffffffffffffffffffff166323b872dd600160009054906101000a900473ffffffffffffffffffffffffffffffffffffffff1633600460003373ffffffffffffffffffffffffffffffffffffffff1673ffffffffffffffffffffffffffffffffffffffff1681526020019081526020016000205460056106189190611179565b6040518463ffffffff1660e01b815260040161063693929190610f8f565b602060405180830381600087803b15801561065057600080fd5b505af1158015610664573d6000803e3d6000fd5b505050506040513d601f19601f820116820180604052508101906106889190610d17565b506000600460003373ffffffffffffffffffffffffffffffffffffffff1673ffffffffffffffffffffffffffffffffffffffff16815260200190815260200160002081905550565b600060019054906101000a900473ffffffffffffffffffffffffffffffffffffffff1681565b600060159054906101000a900460ff1681565b600160009054906101000a900473ffffffffffffffffffffffffffffffffffffffff1681565b60008054906101000a900460ff1681565b600060159054906101000a900460ff1615610790576040517f08c379a000000000000000000000000000000000000000000000000000000000815260040161078790611017565b60405180910390fd5b600060028111156107ca577f4e487b7100000000000000000000000000000000000000000000000000000000600052602160045260246000fd5b60008054906101000a900460ff166002811115610810577f4e487b7100000000000000000000000000000000000000000000000000000000600052602160045260246000fd5b14156108235761081e610957565b6108c0565b6001600281111561085d577f4e487b7100000000000000000000000000000000000000000000000000000000600052602160045260246000fd5b60008054906101000a900460ff1660028111156108a3577f4e487b7100000000000000000000000000000000000000000000000000000000600052602160045260246000fd5b14156108b6576108b1610ad5565b6108bf565b6108be610bc7565b5b5b34600460003373ffffffffffffffffffffffffffffffffffffffff1673ffffffffffffffffffffffffffffffffffffffff168152602001908152602001600020600082825461090f9190611123565b9250508190555034600560008282546109289190611123565b92505081905550565b600260009054906101000a900473ffffffffffffffffffffffffffffffffffffffff1681565b600360003373ffffffffffffffffffffffffffffffffffffffff1673ffffffffffffffffffffffffffffffffffffffff16815260200190815260200160002060009054906101000a900460ff166109e3576040517f08c379a00000000000000000000000000000000000000000000000000000000081526004016109da90611077565b60405180910390fd5b685150ae84a8cdf0000034600460003373ffffffffffffffffffffffffffffffffffffffff1673ffffffffffffffffffffffffffffffffffffffff16815260200190815260200160002054610a389190611123565b1115610a79576040517f08c379a0000000000000000000000000000000000000000000000000000000008152600401610a7090611037565b60405180910390fd5b69032d26d12e980b60000034600554610a929190611123565b1115610ad3576040517f08c379a0000000000000000000000000000000000000000000000000000000008152600401610aca90611097565b60405180910390fd5b565b683635c9adc5dea0000034600460003373ffffffffffffffffffffffffffffffffffffffff1673ffffffffffffffffffffffffffffffffffffffff16815260200190815260200160002054610b2a9190611123565b1115610b6b576040517f08c379a0000000000000000000000000000000000000000000000000000000008152600401610b6290611037565b60405180910390fd5b69065a4da25d3016c0000034600554610b849190611123565b1115610bc5576040517f08c379a0000000000000000000000000000000000000000000000000000000008152600401610bbc90611097565b60405180910390fd5b565b6000346005610bd69190611179565b9050600060019054906101000a900473ffffffffffffffffffffffffffffffffffffffff1673ffffffffffffffffffffffffffffffffffffffff166323b872dd600160009054906101000a900473ffffffffffffffffffffffffffffffffffffffff1633846040518463ffffffff1660e01b8152600401610c5993929190610f8f565b602060405180830381600087803b158015610c7357600080fd5b505af1158015610c87573d6000803e3d6000fd5b505050506040513d601f19601f82011682018060405250810190610cab9190610d17565b5050565b600081359050610cbe816112d6565b92915050565b600081519050610cd3816112d6565b92915050565b600081359050610ce8816112ed565b92915050565b600060208284031215610d0057600080fd5b6000610d0e84828501610caf565b91505092915050565b600060208284031215610d2957600080fd5b6000610d3784828501610cc4565b91505092915050565b600060208284031215610d5257600080fd5b6000610d6084828501610cd9565b91505092915050565b610d72816111d3565b82525050565b610d81816111e5565b82525050565b610d908161122e565b82525050565b610d9f81611252565b82525050565b6000610db2600683611112565b91507f50415553454400000000000000000000000000000000000000000000000000006000830152602082019050919050565b6000610df2601483611112565b91507f4d41585f494e445f434f4e545249425554494f4e0000000000000000000000006000830152602082019050919050565b6000610e32600c83611112565b91507f4d4f56455f464f525741524400000000000000000000000000000000000000006000830152602082019050919050565b6000610e72601083611112565b91507f4e4f545f4f4e5f57484954454c495354000000000000000000000000000000006000830152602082019050919050565b6000610eb2601683611112565b91507f4d41585f544f54414c5f434f4e545249425554494f4e000000000000000000006000830152602082019050919050565b6000610ef2600983611112565b91507f4e4f545f4f574e455200000000000000000000000000000000000000000000006000830152602082019050919050565b6000610f32600983611112565b91507f4e4f5420524541445900000000000000000000000000000000000000000000006000830152602082019050919050565b610f6e81611224565b82525050565b6000602082019050610f896000830184610d69565b92915050565b6000606082019050610fa46000830186610d69565b610fb16020830185610d69565b610fbe6040830184610f65565b949350505050565b6000602082019050610fdb6000830184610d78565b92915050565b6000602082019050610ff66000830184610d87565b92915050565b60006020820190506110116000830184610d96565b92915050565b6000602082019050818103600083015261103081610da5565b9050919050565b6000602082019050818103600083015261105081610de5565b9050919050565b6000602082019050818103600083015261107081610e25565b9050919050565b6000602082019050818103600083015261109081610e65565b9050919050565b600060208201905081810360008301526110b081610ea5565b9050919050565b600060208201905081810360008301526110d081610ee5565b9050919050565b600060208201905081810360008301526110f081610f25565b9050919050565b600060208201905061110c6000830184610f65565b92915050565b600082825260208201905092915050565b600061112e82611224565b915061113983611224565b9250827fffffffffffffffffffffffffffffffffffffffffffffffffffffffffffffffff0382111561116e5761116d611264565b5b828201905092915050565b600061118482611224565b915061118f83611224565b9250817fffffffffffffffffffffffffffffffffffffffffffffffffffffffffffffffff04831182151516156111c8576111c7611264565b5b828202905092915050565b60006111de82611204565b9050919050565b60008115159050919050565b60008190506111ff826112c2565b919050565b600073ffffffffffffffffffffffffffffffffffffffff82169050919050565b6000819050919050565b600061123982611240565b9050919050565b600061124b82611204565b9050919050565b600061125d826111f1565b9050919050565b7f4e487b7100000000000000000000000000000000000000000000000000000000600052601160045260246000fd5b7f4e487b7100000000000000000000000000000000000000000000000000000000600052602160045260246000fd5b600381106112d3576112d2611293565b5b50565b6112df816111e5565b81146112ea57600080fd5b50565b600381106112fa57600080fd5b5056fea2646970667358221220f9af63d9bc9e2782346d0db1e397adadc8995f07aadea9f6de8f8a092fbc83d864736f6c63430008000033",
  "linkReferences": {},
  "deployedLinkReferences": {}
}