{
  "_format": "hh-sol-artifact-1",
  "contractName": "ICO",
  "sourceName": "contracts/ICO.sol",
  "abi": [
    {
      "inputs": [
        {
          "internalType": "address[]",
          "name": "addrs",
          "type": "address[]"
        },
        {
          "internalType": "address",
          "name": "_token",
          "type": "address"
        }
      ],
      "stateMutability": "nonpayable",
      "type": "constructor"
    },
    {
      "inputs": [
        {
          "internalType": "enum ICO.Phase",
          "name": "_phase",
          "type": "uint8"
        }
      ],
      "name": "changePhase",
      "outputs": [],
      "stateMutability": "nonpayable",
      "type": "function"
    },
    {
      "inputs": [],
      "name": "contribute",
      "outputs": [],
      "stateMutability": "payable",
      "type": "function"
    },
    {
      "inputs": [
        {
          "internalType": "uint256",
          "name": "",
          "type": "uint256"
        }
      ],
      "name": "contributors",
      "outputs": [
        {
          "internalType": "address",
          "name": "",
          "type": "address"
        }
      ],
      "stateMutability": "view",
      "type": "function"
    },
    {
      "inputs": [],
      "name": "getWhitelist",
      "outputs": [
        {
          "internalType": "address[]",
          "name": "",
          "type": "address[]"
        }
      ],
      "stateMutability": "view",
      "type": "function"
    },
    {
      "inputs": [],
      "name": "owner",
      "outputs": [
        {
          "internalType": "address",
          "name": "",
          "type": "address"
        }
      ],
      "stateMutability": "view",
      "type": "function"
    },
    {
      "inputs": [
        {
          "internalType": "bool",
          "name": "_paused",
          "type": "bool"
        }
      ],
      "name": "pause",
      "outputs": [],
      "stateMutability": "nonpayable",
      "type": "function"
    },
    {
      "inputs": [],
      "name": "paused",
      "outputs": [
        {
          "internalType": "bool",
          "name": "",
          "type": "bool"
        }
      ],
      "stateMutability": "view",
      "type": "function"
    },
    {
      "inputs": [],
      "name": "phase",
      "outputs": [
        {
          "internalType": "enum ICO.Phase",
          "name": "",
          "type": "uint8"
        }
      ],
      "stateMutability": "view",
      "type": "function"
    },
    {
      "inputs": [],
      "name": "spcOwner",
      "outputs": [
        {
          "internalType": "address",
          "name": "",
          "type": "address"
        }
      ],
      "stateMutability": "view",
      "type": "function"
    },
    {
      "inputs": [],
      "name": "spcToken",
      "outputs": [
        {
          "internalType": "contract IERC20",
          "name": "",
          "type": "address"
        }
      ],
      "stateMutability": "view",
      "type": "function"
    },
    {
      "inputs": [],
      "name": "total",
      "outputs": [
        {
          "internalType": "uint256",
          "name": "",
          "type": "uint256"
        }
      ],
      "stateMutability": "view",
      "type": "function"
    },
    {
      "inputs": [
        {
          "internalType": "uint256",
          "name": "",
          "type": "uint256"
        }
      ],
      "name": "whitelist",
      "outputs": [
        {
          "internalType": "address",
          "name": "",
          "type": "address"
        }
      ],
      "stateMutability": "view",
      "type": "function"
    }
  ],
  "bytecode": "0x60806040523480156200001157600080fd5b5060405162001d2638038062001d26833981810160405281019062000037919062000241565b33600160006101000a81548173ffffffffffffffffffffffffffffffffffffffff021916908373ffffffffffffffffffffffffffffffffffffffff160217905550816003908051906020019062000090929190620000da565b5080600060016101000a81548173ffffffffffffffffffffffffffffffffffffffff021916908373ffffffffffffffffffffffffffffffffffffffff1602179055505050620003b7565b82805482825590600052602060002090810192821562000156579160200282015b82811115620001555782518260006101000a81548173ffffffffffffffffffffffffffffffffffffffff021916908373ffffffffffffffffffffffffffffffffffffffff16021790555091602001919060010190620000fb565b5b50905062000165919062000169565b5090565b5b80821115620001845760008160009055506001016200016a565b5090565b60006200019f6200019984620002c4565b6200029b565b90508083825260208201905082856020860282011115620001bf57600080fd5b60005b85811015620001f35781620001d88882620001fd565b845260208401935060208301925050600181019050620001c2565b5050509392505050565b6000815190506200020e816200039d565b92915050565b600082601f8301126200022657600080fd5b81516200023884826020860162000188565b91505092915050565b600080604083850312156200025557600080fd5b600083015167ffffffffffffffff8111156200027057600080fd5b6200027e8582860162000214565b92505060206200029185828601620001fd565b9150509250929050565b6000620002a7620002ba565b9050620002b5828262000327565b919050565b6000604051905090565b600067ffffffffffffffff821115620002e257620002e16200035d565b5b602082029050602081019050919050565b6000620003008262000307565b9050919050565b600073ffffffffffffffffffffffffffffffffffffffff82169050919050565b62000332826200038c565b810181811067ffffffffffffffff821117156200035457620003536200035d565b5b80604052505050565b7f4e487b7100000000000000000000000000000000000000000000000000000000600052604160045260246000fd5b6000601f19601f8301169050919050565b620003a881620002f3565b8114620003b457600080fd5b50565b61195f80620003c76000396000f3fe6080604052600436106100a75760003560e01c80637ebd1b30116100645780637ebd1b30146101bc5780638da5cb5b146101f9578063b1c9fe6e14610224578063d01f63f51461024f578063d7bb99ba1461027a578063fe87853314610284576100a7565b806302329a29146100ac5780630721c297146100d55780632ddbd13a146100fe5780633cb5d1001461012957806359f885b0146101665780635c975abb14610191575b600080fd5b3480156100b857600080fd5b506100d360048036038101906100ce9190611195565b6102af565b005b3480156100e157600080fd5b506100fc60048036038101906100f791906111e7565b61035c565b005b34801561010a57600080fd5b5061011361058b565b6040516101209190611560565b60405180910390f35b34801561013557600080fd5b50610150600480360381019061014b9190611210565b610591565b60405161015d91906113db565b60405180910390f35b34801561017257600080fd5b5061017b6105d0565b604051610188919061146a565b60405180910390f35b34801561019d57600080fd5b506101a66105f6565b6040516101b3919061144f565b60405180910390f35b3480156101c857600080fd5b506101e360048036038101906101de9190611210565b610609565b6040516101f091906113db565b60405180910390f35b34801561020557600080fd5b5061020e610648565b60405161021b91906113db565b60405180910390f35b34801561023057600080fd5b5061023961066e565b6040516102469190611485565b60405180910390f35b34801561025b57600080fd5b5061026461067f565b604051610271919061142d565b60405180910390f35b61028261070d565b005b34801561029057600080fd5b50610299610a0b565b6040516102a691906113db565b60405180910390f35b600160009054906101000a900473ffffffffffffffffffffffffffffffffffffffff1673ffffffffffffffffffffffffffffffffffffffff163373ffffffffffffffffffffffffffffffffffffffff161461033f576040517f08c379a000000000000000000000000000000000000000000000000000000000815260040161033690611540565b60405180910390fd5b80600060156101000a81548160ff02191690831515021790555050565b600160009054906101000a900473ffffffffffffffffffffffffffffffffffffffff1673ffffffffffffffffffffffffffffffffffffffff163373ffffffffffffffffffffffffffffffffffffffff16146103ec576040517f08c379a00000000000000000000000000000000000000000000000000000000081526004016103e390611540565b60405180910390fd5b60008054906101000a900460ff166002811115610432577f4e487b7100000000000000000000000000000000000000000000000000000000600052602160045260246000fd5b81600281111561046b577f4e487b7100000000000000000000000000000000000000000000000000000000600052602160045260246000fd5b116104ab576040517f08c379a00000000000000000000000000000000000000000000000000000000081526004016104a2906114c0565b60405180910390fd5b806000806101000a81548160ff021916908360028111156104f5577f4e487b7100000000000000000000000000000000000000000000000000000000600052602160045260246000fd5b0217905550600280811115610533577f4e487b7100000000000000000000000000000000000000000000000000000000600052602160045260246000fd5b60008054906101000a900460ff166002811115610579577f4e487b7100000000000000000000000000000000000000000000000000000000600052602160045260246000fd5b141561058857610587610a31565b5b50565b60075481565b600481815481106105a157600080fd5b906000526020600020016000915054906101000a900473ffffffffffffffffffffffffffffffffffffffff1681565b600060019054906101000a900473ffffffffffffffffffffffffffffffffffffffff1681565b600060159054906101000a900460ff1681565b6003818154811061061957600080fd5b906000526020600020016000915054906101000a900473ffffffffffffffffffffffffffffffffffffffff1681565b600160009054906101000a900473ffffffffffffffffffffffffffffffffffffffff1681565b60008054906101000a900460ff1681565b6060600380548060200260200160405190810160405280929190818152602001828054801561070357602002820191906000526020600020905b8160009054906101000a900473ffffffffffffffffffffffffffffffffffffffff1673ffffffffffffffffffffffffffffffffffffffff16815260200190600101908083116106b9575b5050505050905090565b600060159054906101000a900460ff161561075d576040517f08c379a0000000000000000000000000000000000000000000000000000000008152600401610754906114a0565b60405180910390fd5b60006002811115610797577f4e487b7100000000000000000000000000000000000000000000000000000000600052602160045260246000fd5b60008054906101000a900460ff1660028111156107dd577f4e487b7100000000000000000000000000000000000000000000000000000000600052602160045260246000fd5b14156107f0576107eb610c3e565b61088d565b6001600281111561082a577f4e487b7100000000000000000000000000000000000000000000000000000000600052602160045260246000fd5b60008054906101000a900460ff166002811115610870577f4e487b7100000000000000000000000000000000000000000000000000000000600052602160045260246000fd5b14156108835761087e610e45565b61088c565b61088b610f4d565b5b5b34600560003373ffffffffffffffffffffffffffffffffffffffff1673ffffffffffffffffffffffffffffffffffffffff16815260200190815260200160002060008282546108dc91906115c5565b9250508190555034600760008282546108f591906115c5565b92505081905550600660003373ffffffffffffffffffffffffffffffffffffffff1673ffffffffffffffffffffffffffffffffffffffff16815260200190815260200160002060009054906101000a900460ff16610a09576001600660003373ffffffffffffffffffffffffffffffffffffffff1673ffffffffffffffffffffffffffffffffffffffff16815260200190815260200160002060006101000a81548160ff0219169083151502179055506004339080600181540180825580915050600190039060005260206000200160009091909190916101000a81548173ffffffffffffffffffffffffffffffffffffffff021916908373ffffffffffffffffffffffffffffffffffffffff1602179055505b565b600260009054906101000a900473ffffffffffffffffffffffffffffffffffffffff1681565b60005b600480549050811015610c3b57600060019054906101000a900473ffffffffffffffffffffffffffffffffffffffff1673ffffffffffffffffffffffffffffffffffffffff166323b872dd600160009054906101000a900473ffffffffffffffffffffffffffffffffffffffff1660048481548110610adc577f4e487b7100000000000000000000000000000000000000000000000000000000600052603260045260246000fd5b9060005260206000200160009054906101000a900473ffffffffffffffffffffffffffffffffffffffff166005600060048781548110610b45577f4e487b7100000000000000000000000000000000000000000000000000000000600052603260045260246000fd5b9060005260206000200160009054906101000a900473ffffffffffffffffffffffffffffffffffffffff1673ffffffffffffffffffffffffffffffffffffffff1673ffffffffffffffffffffffffffffffffffffffff168152602001908152602001600020546005610bb7919061161b565b6040518463ffffffff1660e01b8152600401610bd5939291906113f6565b602060405180830381600087803b158015610bef57600080fd5b505af1158015610c03573d6000803e3d6000fd5b505050506040513d601f19601f82011682018060405250810190610c2791906111be565b508080610c339061173a565b915050610a34565b50565b60005b600380549050811015610d52573373ffffffffffffffffffffffffffffffffffffffff1660038281548110610c9f577f4e487b7100000000000000000000000000000000000000000000000000000000600052603260045260246000fd5b9060005260206000200160009054906101000a900473ffffffffffffffffffffffffffffffffffffffff1673ffffffffffffffffffffffffffffffffffffffff161415610ceb57610d52565b6001600380549050610cfd9190611675565b811415610d3f576040517f08c379a0000000000000000000000000000000000000000000000000000000008152600401610d3690611500565b60405180910390fd5b8080610d4a9061173a565b915050610c41565b50685150ae84a8cdf0000034600560003373ffffffffffffffffffffffffffffffffffffffff1673ffffffffffffffffffffffffffffffffffffffff16815260200190815260200160002054610da891906115c5565b1115610de9576040517f08c379a0000000000000000000000000000000000000000000000000000000008152600401610de0906114e0565b60405180910390fd5b69032d26d12e980b60000034600754610e0291906115c5565b1115610e43576040517f08c379a0000000000000000000000000000000000000000000000000000000008152600401610e3a90611520565b60405180910390fd5b565b610e5b34600754610e5691906115c5565b61107f565b683635c9adc5dea0000034600560003373ffffffffffffffffffffffffffffffffffffffff1673ffffffffffffffffffffffffffffffffffffffff16815260200190815260200160002054610eb091906115c5565b1115610ef1576040517f08c379a0000000000000000000000000000000000000000000000000000000008152600401610ee8906114e0565b60405180910390fd5b69065a4da25d3016c0000034600754610f0a91906115c5565b1115610f4b576040517f08c379a0000000000000000000000000000000000000000000000000000000008152600401610f4290611520565b60405180910390fd5b565b600034600560003373ffffffffffffffffffffffffffffffffffffffff1673ffffffffffffffffffffffffffffffffffffffff16815260200190815260200160002054610f9a91906115c5565b6005610fa6919061161b565b9050600060019054906101000a900473ffffffffffffffffffffffffffffffffffffffff1673ffffffffffffffffffffffffffffffffffffffff166323b872dd600160009054906101000a900473ffffffffffffffffffffffffffffffffffffffff1633846040518463ffffffff1660e01b8152600401611029939291906113f6565b602060405180830381600087803b15801561104357600080fd5b505af1158015611057573d6000803e3d6000fd5b505050506040513d601f19601f8201168201806040525081019061107b91906111be565b5050565b611115816040516024016110939190611560565b6040516020818303038152906040527ff5b1bba9000000000000000000000000000000000000000000000000000000007bffffffffffffffffffffffffffffffffffffffffffffffffffffffff19166020820180517bffffffffffffffffffffffffffffffffffffffffffffffffffffffff8381831617835250505050611118565b50565b60008151905060006a636f6e736f6c652e6c6f679050602083016000808483855afa5050505050565b600081359050611150816118eb565b92915050565b600081519050611165816118eb565b92915050565b60008135905061117a81611902565b92915050565b60008135905061118f81611912565b92915050565b6000602082840312156111a757600080fd5b60006111b584828501611141565b91505092915050565b6000602082840312156111d057600080fd5b60006111de84828501611156565b91505092915050565b6000602082840312156111f957600080fd5b60006112078482850161116b565b91505092915050565b60006020828403121561122257600080fd5b600061123084828501611180565b91505092915050565b60006112458383611251565b60208301905092915050565b61125a816116a9565b82525050565b611269816116a9565b82525050565b600061127a8261158b565b61128481856115a3565b935061128f8361157b565b8060005b838110156112c05781516112a78882611239565b97506112b283611596565b925050600181019050611293565b5085935050505092915050565b6112d6816116bb565b82525050565b6112e581611704565b82525050565b6112f481611728565b82525050565b60006113076006836115b4565b9150611312826117e1565b602082019050919050565b600061132a600c836115b4565b91506113358261180a565b602082019050919050565b600061134d6014836115b4565b915061135882611833565b602082019050919050565b60006113706010836115b4565b915061137b8261185c565b602082019050919050565b60006113936016836115b4565b915061139e82611885565b602082019050919050565b60006113b66009836115b4565b91506113c1826118ae565b602082019050919050565b6113d5816116fa565b82525050565b60006020820190506113f06000830184611260565b92915050565b600060608201905061140b6000830186611260565b6114186020830185611260565b61142560408301846113cc565b949350505050565b60006020820190508181036000830152611447818461126f565b905092915050565b600060208201905061146460008301846112cd565b92915050565b600060208201905061147f60008301846112dc565b92915050565b600060208201905061149a60008301846112eb565b92915050565b600060208201905081810360008301526114b9816112fa565b9050919050565b600060208201905081810360008301526114d98161131d565b9050919050565b600060208201905081810360008301526114f981611340565b9050919050565b6000602082019050818103600083015261151981611363565b9050919050565b6000602082019050818103600083015261153981611386565b9050919050565b60006020820190508181036000830152611559816113a9565b9050919050565b600060208201905061157560008301846113cc565b92915050565b6000819050602082019050919050565b600081519050919050565b6000602082019050919050565b600082825260208201905092915050565b600082825260208201905092915050565b60006115d0826116fa565b91506115db836116fa565b9250827fffffffffffffffffffffffffffffffffffffffffffffffffffffffffffffffff038211156116105761160f611783565b5b828201905092915050565b6000611626826116fa565b9150611631836116fa565b9250817fffffffffffffffffffffffffffffffffffffffffffffffffffffffffffffffff048311821515161561166a57611669611783565b5b828202905092915050565b6000611680826116fa565b915061168b836116fa565b92508282101561169e5761169d611783565b5b828203905092915050565b60006116b4826116da565b9050919050565b60008115159050919050565b60008190506116d5826118d7565b919050565b600073ffffffffffffffffffffffffffffffffffffffff82169050919050565b6000819050919050565b600061170f82611716565b9050919050565b6000611721826116da565b9050919050565b6000611733826116c7565b9050919050565b6000611745826116fa565b91507fffffffffffffffffffffffffffffffffffffffffffffffffffffffffffffffff82141561177857611777611783565b5b600182019050919050565b7f4e487b7100000000000000000000000000000000000000000000000000000000600052601160045260246000fd5b7f4e487b7100000000000000000000000000000000000000000000000000000000600052602160045260246000fd5b7f5041555345440000000000000000000000000000000000000000000000000000600082015250565b7f4d4f56455f464f57524152440000000000000000000000000000000000000000600082015250565b7f4d41585f494e445f434f4e545249425554494f4e000000000000000000000000600082015250565b7f4e4f545f4f4e5f57484954454c49535400000000000000000000000000000000600082015250565b7f4d41585f544f54414c5f434f4e545249425554494f4e00000000000000000000600082015250565b7f4e4f545f4f574e45520000000000000000000000000000000000000000000000600082015250565b600381106118e8576118e76117b2565b5b50565b6118f4816116bb565b81146118ff57600080fd5b50565b6003811061190f57600080fd5b50565b61191b816116fa565b811461192657600080fd5b5056fea2646970667358221220c93648138d66204ce16f4f99e54c0a841288b228d5c1e37c815f17ef272f2bb064736f6c63430008040033",
  "linkReferences": {},
  "deployedLinkReferences": {}
}