{
  "_format": "hh-sol-artifact-1",
  "contractName": "ICO",
  "sourceName": "contracts/ICO.sol",
  "abi": [
    {
      "inputs": [
        {
          "internalType": "address[]",
          "name": "addrs",
          "type": "address[]"
        },
        {
          "internalType": "address",
          "name": "_token",
          "type": "address"
        }
      ],
      "stateMutability": "nonpayable",
      "type": "constructor"
    },
    {
      "inputs": [
        {
          "internalType": "enum ICO.Phase",
          "name": "_phase",
          "type": "uint8"
        }
      ],
      "name": "changePhase",
      "outputs": [],
      "stateMutability": "nonpayable",
      "type": "function"
    },
    {
      "inputs": [],
      "name": "contribute",
      "outputs": [],
      "stateMutability": "payable",
      "type": "function"
    },
    {
      "inputs": [
        {
          "internalType": "uint256",
          "name": "",
          "type": "uint256"
        }
      ],
      "name": "contributors",
      "outputs": [
        {
          "internalType": "address",
          "name": "",
          "type": "address"
        }
      ],
      "stateMutability": "view",
      "type": "function"
    },
    {
      "inputs": [],
      "name": "getWhitelist",
      "outputs": [
        {
          "internalType": "address[]",
          "name": "",
          "type": "address[]"
        }
      ],
      "stateMutability": "view",
      "type": "function"
    },
    {
      "inputs": [],
      "name": "owner",
      "outputs": [
        {
          "internalType": "address",
          "name": "",
          "type": "address"
        }
      ],
      "stateMutability": "view",
      "type": "function"
    },
    {
      "inputs": [
        {
          "internalType": "bool",
          "name": "_paused",
          "type": "bool"
        }
      ],
      "name": "pause",
      "outputs": [],
      "stateMutability": "nonpayable",
      "type": "function"
    },
    {
      "inputs": [],
      "name": "paused",
      "outputs": [
        {
          "internalType": "bool",
          "name": "",
          "type": "bool"
        }
      ],
      "stateMutability": "view",
      "type": "function"
    },
    {
      "inputs": [],
      "name": "phase",
      "outputs": [
        {
          "internalType": "enum ICO.Phase",
          "name": "",
          "type": "uint8"
        }
      ],
      "stateMutability": "view",
      "type": "function"
    },
    {
      "inputs": [],
      "name": "spcOwner",
      "outputs": [
        {
          "internalType": "address",
          "name": "",
          "type": "address"
        }
      ],
      "stateMutability": "view",
      "type": "function"
    },
    {
      "inputs": [],
      "name": "spcToken",
      "outputs": [
        {
          "internalType": "contract IERC20",
          "name": "",
          "type": "address"
        }
      ],
      "stateMutability": "view",
      "type": "function"
    },
    {
      "inputs": [],
      "name": "total",
      "outputs": [
        {
          "internalType": "uint256",
          "name": "",
          "type": "uint256"
        }
      ],
      "stateMutability": "view",
      "type": "function"
    },
    {
      "inputs": [
        {
          "internalType": "uint256",
          "name": "",
          "type": "uint256"
        }
      ],
      "name": "whitelist",
      "outputs": [
        {
          "internalType": "address",
          "name": "",
          "type": "address"
        }
      ],
      "stateMutability": "view",
      "type": "function"
    }
  ],
  "bytecode": "0x60806040523480156200001157600080fd5b5060405162001c1038038062001c10833981810160405281019062000037919062000241565b33600160006101000a81548173ffffffffffffffffffffffffffffffffffffffff021916908373ffffffffffffffffffffffffffffffffffffffff160217905550816003908051906020019062000090929190620000da565b5080600060016101000a81548173ffffffffffffffffffffffffffffffffffffffff021916908373ffffffffffffffffffffffffffffffffffffffff16021790555050506200037b565b82805482825590600052602060002090810192821562000156579160200282015b82811115620001555782518260006101000a81548173ffffffffffffffffffffffffffffffffffffffff021916908373ffffffffffffffffffffffffffffffffffffffff16021790555091602001919060010190620000fb565b5b50905062000165919062000169565b5090565b5b80821115620001845760008160009055506001016200016a565b5090565b60006200019f6200019984620002cf565b6200029b565b90508083825260208201905082856020860282011115620001bf57600080fd5b60005b85811015620001f35781620001d88882620001fd565b845260208401935060208301925050600181019050620001c2565b5050509392505050565b6000815190506200020e8162000361565b92915050565b600082601f8301126200022657600080fd5b81516200023884826020860162000188565b91505092915050565b600080604083850312156200025557600080fd5b600083015167ffffffffffffffff8111156200027057600080fd5b6200027e8582860162000214565b92505060206200029185828601620001fd565b9150509250929050565b6000604051905081810181811067ffffffffffffffff82111715620002c557620002c462000332565b5b8060405250919050565b600067ffffffffffffffff821115620002ed57620002ec62000332565b5b602082029050602081019050919050565b60006200030b8262000312565b9050919050565b600073ffffffffffffffffffffffffffffffffffffffff82169050919050565b7f4e487b7100000000000000000000000000000000000000000000000000000000600052604160045260246000fd5b6200036c81620002fe565b81146200037857600080fd5b50565b611885806200038b6000396000f3fe6080604052600436106100a75760003560e01c80637ebd1b30116100645780637ebd1b30146101bc5780638da5cb5b146101f9578063b1c9fe6e14610224578063d01f63f51461024f578063d7bb99ba1461027a578063fe87853314610284576100a7565b806302329a29146100ac5780630721c297146100d55780632ddbd13a146100fe5780633cb5d1001461012957806359f885b0146101665780635c975abb14610191575b600080fd5b3480156100b857600080fd5b506100d360048036038101906100ce9190611103565b6102af565b005b3480156100e157600080fd5b506100fc60048036038101906100f79190611155565b61035c565b005b34801561010a57600080fd5b5061011361058b565b604051610120919061157c565b60405180910390f35b34801561013557600080fd5b50610150600480360381019061014b919061117e565b610591565b60405161015d91906113f7565b60405180910390f35b34801561017257600080fd5b5061017b6105d0565b6040516101889190611486565b60405180910390f35b34801561019d57600080fd5b506101a66105f6565b6040516101b3919061146b565b60405180910390f35b3480156101c857600080fd5b506101e360048036038101906101de919061117e565b610609565b6040516101f091906113f7565b60405180910390f35b34801561020557600080fd5b5061020e610648565b60405161021b91906113f7565b60405180910390f35b34801561023057600080fd5b5061023961066e565b60405161024691906114a1565b60405180910390f35b34801561025b57600080fd5b5061026461067f565b6040516102719190611449565b60405180910390f35b61028261079d565b005b34801561029057600080fd5b50610299610a9b565b6040516102a691906113f7565b60405180910390f35b600160009054906101000a900473ffffffffffffffffffffffffffffffffffffffff1673ffffffffffffffffffffffffffffffffffffffff163373ffffffffffffffffffffffffffffffffffffffff161461033f576040517f08c379a00000000000000000000000000000000000000000000000000000000081526004016103369061155c565b60405180910390fd5b80600060156101000a81548160ff02191690831515021790555050565b600160009054906101000a900473ffffffffffffffffffffffffffffffffffffffff1673ffffffffffffffffffffffffffffffffffffffff163373ffffffffffffffffffffffffffffffffffffffff16146103ec576040517f08c379a00000000000000000000000000000000000000000000000000000000081526004016103e39061155c565b60405180910390fd5b60008054906101000a900460ff166002811115610432577f4e487b7100000000000000000000000000000000000000000000000000000000600052602160045260246000fd5b81600281111561046b577f4e487b7100000000000000000000000000000000000000000000000000000000600052602160045260246000fd5b116104ab576040517f08c379a00000000000000000000000000000000000000000000000000000000081526004016104a2906114dc565b60405180910390fd5b806000806101000a81548160ff021916908360028111156104f5577f4e487b7100000000000000000000000000000000000000000000000000000000600052602160045260246000fd5b0217905550600280811115610533577f4e487b7100000000000000000000000000000000000000000000000000000000600052602160045260246000fd5b60008054906101000a900460ff166002811115610579577f4e487b7100000000000000000000000000000000000000000000000000000000600052602160045260246000fd5b141561058857610587610ac1565b5b50565b60075481565b600481815481106105a157600080fd5b906000526020600020016000915054906101000a900473ffffffffffffffffffffffffffffffffffffffff1681565b600060019054906101000a900473ffffffffffffffffffffffffffffffffffffffff1681565b600060159054906101000a900460ff1681565b6003818154811061061957600080fd5b906000526020600020016000915054906101000a900473ffffffffffffffffffffffffffffffffffffffff1681565b600160009054906101000a900473ffffffffffffffffffffffffffffffffffffffff1681565b60008054906101000a900460ff1681565b6060600160009054906101000a900473ffffffffffffffffffffffffffffffffffffffff1673ffffffffffffffffffffffffffffffffffffffff163373ffffffffffffffffffffffffffffffffffffffff1614610711576040517f08c379a00000000000000000000000000000000000000000000000000000000081526004016107089061155c565b60405180910390fd5b600380548060200260200160405190810160405280929190818152602001828054801561079357602002820191906000526020600020905b8160009054906101000a900473ffffffffffffffffffffffffffffffffffffffff1673ffffffffffffffffffffffffffffffffffffffff1681526020019060010190808311610749575b5050505050905090565b600060159054906101000a900460ff16156107ed576040517f08c379a00000000000000000000000000000000000000000000000000000000081526004016107e4906114bc565b60405180910390fd5b60006002811115610827577f4e487b7100000000000000000000000000000000000000000000000000000000600052602160045260246000fd5b60008054906101000a900460ff16600281111561086d577f4e487b7100000000000000000000000000000000000000000000000000000000600052602160045260246000fd5b14156108805761087b610cce565b61091d565b600160028111156108ba577f4e487b7100000000000000000000000000000000000000000000000000000000600052602160045260246000fd5b60008054906101000a900460ff166002811115610900577f4e487b7100000000000000000000000000000000000000000000000000000000600052602160045260246000fd5b14156109135761090e610ed5565b61091c565b61091b610fc7565b5b5b34600560003373ffffffffffffffffffffffffffffffffffffffff1673ffffffffffffffffffffffffffffffffffffffff168152602001908152602001600020600082825461096c91906115e1565b92505081905550346007600082825461098591906115e1565b92505081905550600660003373ffffffffffffffffffffffffffffffffffffffff1673ffffffffffffffffffffffffffffffffffffffff16815260200190815260200160002060009054906101000a900460ff16610a99576001600660003373ffffffffffffffffffffffffffffffffffffffff1673ffffffffffffffffffffffffffffffffffffffff16815260200190815260200160002060006101000a81548160ff0219169083151502179055506004339080600181540180825580915050600190039060005260206000200160009091909190916101000a81548173ffffffffffffffffffffffffffffffffffffffff021916908373ffffffffffffffffffffffffffffffffffffffff1602179055505b565b600260009054906101000a900473ffffffffffffffffffffffffffffffffffffffff1681565b60005b600480549050811015610ccb57600060019054906101000a900473ffffffffffffffffffffffffffffffffffffffff1673ffffffffffffffffffffffffffffffffffffffff166323b872dd600160009054906101000a900473ffffffffffffffffffffffffffffffffffffffff1660048481548110610b6c577f4e487b7100000000000000000000000000000000000000000000000000000000600052603260045260246000fd5b9060005260206000200160009054906101000a900473ffffffffffffffffffffffffffffffffffffffff166005600060048781548110610bd5577f4e487b7100000000000000000000000000000000000000000000000000000000600052603260045260246000fd5b9060005260206000200160009054906101000a900473ffffffffffffffffffffffffffffffffffffffff1673ffffffffffffffffffffffffffffffffffffffff1673ffffffffffffffffffffffffffffffffffffffff168152602001908152602001600020546005610c479190611637565b6040518463ffffffff1660e01b8152600401610c6593929190611412565b602060405180830381600087803b158015610c7f57600080fd5b505af1158015610c93573d6000803e3d6000fd5b505050506040513d601f19601f82011682018060405250810190610cb7919061112c565b508080610cc390611756565b915050610ac4565b50565b60005b600380549050811015610de2573373ffffffffffffffffffffffffffffffffffffffff1660038281548110610d2f577f4e487b7100000000000000000000000000000000000000000000000000000000600052603260045260246000fd5b9060005260206000200160009054906101000a900473ffffffffffffffffffffffffffffffffffffffff1673ffffffffffffffffffffffffffffffffffffffff161415610d7b57610de2565b6001600380549050610d8d9190611691565b811415610dcf576040517f08c379a0000000000000000000000000000000000000000000000000000000008152600401610dc69061151c565b60405180910390fd5b8080610dda90611756565b915050610cd1565b50685150ae84a8cdf0000034600560003373ffffffffffffffffffffffffffffffffffffffff1673ffffffffffffffffffffffffffffffffffffffff16815260200190815260200160002054610e3891906115e1565b1115610e79576040517f08c379a0000000000000000000000000000000000000000000000000000000008152600401610e70906114fc565b60405180910390fd5b69032d26d12e980b60000034600754610e9291906115e1565b1115610ed3576040517f08c379a0000000000000000000000000000000000000000000000000000000008152600401610eca9061153c565b60405180910390fd5b565b683635c9adc5dea0000034600560003373ffffffffffffffffffffffffffffffffffffffff1673ffffffffffffffffffffffffffffffffffffffff16815260200190815260200160002054610f2a91906115e1565b1115610f6b576040517f08c379a0000000000000000000000000000000000000000000000000000000008152600401610f62906114fc565b60405180910390fd5b69065a4da25d3016c0000034600754610f8491906115e1565b1115610fc5576040517f08c379a0000000000000000000000000000000000000000000000000000000008152600401610fbc9061153c565b60405180910390fd5b565b6000346005610fd69190611637565b9050600060019054906101000a900473ffffffffffffffffffffffffffffffffffffffff1673ffffffffffffffffffffffffffffffffffffffff166323b872dd600160009054906101000a900473ffffffffffffffffffffffffffffffffffffffff1633846040518463ffffffff1660e01b815260040161105993929190611412565b602060405180830381600087803b15801561107357600080fd5b505af1158015611087573d6000803e3d6000fd5b505050506040513d601f19601f820116820180604052508101906110ab919061112c565b5050565b6000813590506110be81611811565b92915050565b6000815190506110d381611811565b92915050565b6000813590506110e881611828565b92915050565b6000813590506110fd81611838565b92915050565b60006020828403121561111557600080fd5b6000611123848285016110af565b91505092915050565b60006020828403121561113e57600080fd5b600061114c848285016110c4565b91505092915050565b60006020828403121561116757600080fd5b6000611175848285016110d9565b91505092915050565b60006020828403121561119057600080fd5b600061119e848285016110ee565b91505092915050565b60006111b383836111bf565b60208301905092915050565b6111c8816116c5565b82525050565b6111d7816116c5565b82525050565b60006111e8826115a7565b6111f281856115bf565b93506111fd83611597565b8060005b8381101561122e57815161121588826111a7565b9750611220836115b2565b925050600181019050611201565b5085935050505092915050565b611244816116d7565b82525050565b61125381611720565b82525050565b61126281611744565b82525050565b60006112756006836115d0565b91507f50415553454400000000000000000000000000000000000000000000000000006000830152602082019050919050565b60006112b5600c836115d0565b91507f4d4f56455f464f575241524400000000000000000000000000000000000000006000830152602082019050919050565b60006112f56014836115d0565b91507f4d41585f494e445f434f4e545249425554494f4e0000000000000000000000006000830152602082019050919050565b60006113356010836115d0565b91507f4e4f545f4f4e5f57484954454c495354000000000000000000000000000000006000830152602082019050919050565b60006113756016836115d0565b91507f4d41585f544f54414c5f434f4e545249425554494f4e000000000000000000006000830152602082019050919050565b60006113b56009836115d0565b91507f4e4f545f4f574e455200000000000000000000000000000000000000000000006000830152602082019050919050565b6113f181611716565b82525050565b600060208201905061140c60008301846111ce565b92915050565b600060608201905061142760008301866111ce565b61143460208301856111ce565b61144160408301846113e8565b949350505050565b6000602082019050818103600083015261146381846111dd565b905092915050565b6000602082019050611480600083018461123b565b92915050565b600060208201905061149b600083018461124a565b92915050565b60006020820190506114b66000830184611259565b92915050565b600060208201905081810360008301526114d581611268565b9050919050565b600060208201905081810360008301526114f5816112a8565b9050919050565b60006020820190508181036000830152611515816112e8565b9050919050565b6000602082019050818103600083015261153581611328565b9050919050565b6000602082019050818103600083015261155581611368565b9050919050565b60006020820190508181036000830152611575816113a8565b9050919050565b600060208201905061159160008301846113e8565b92915050565b6000819050602082019050919050565b600081519050919050565b6000602082019050919050565b600082825260208201905092915050565b600082825260208201905092915050565b60006115ec82611716565b91506115f783611716565b9250827fffffffffffffffffffffffffffffffffffffffffffffffffffffffffffffffff0382111561162c5761162b61179f565b5b828201905092915050565b600061164282611716565b915061164d83611716565b9250817fffffffffffffffffffffffffffffffffffffffffffffffffffffffffffffffff04831182151516156116865761168561179f565b5b828202905092915050565b600061169c82611716565b91506116a783611716565b9250828210156116ba576116b961179f565b5b828203905092915050565b60006116d0826116f6565b9050919050565b60008115159050919050565b60008190506116f1826117fd565b919050565b600073ffffffffffffffffffffffffffffffffffffffff82169050919050565b6000819050919050565b600061172b82611732565b9050919050565b600061173d826116f6565b9050919050565b600061174f826116e3565b9050919050565b600061176182611716565b91507fffffffffffffffffffffffffffffffffffffffffffffffffffffffffffffffff8214156117945761179361179f565b5b600182019050919050565b7f4e487b7100000000000000000000000000000000000000000000000000000000600052601160045260246000fd5b7f4e487b7100000000000000000000000000000000000000000000000000000000600052602160045260246000fd5b6003811061180e5761180d6117ce565b5b50565b61181a816116d7565b811461182557600080fd5b50565b6003811061183557600080fd5b50565b61184181611716565b811461184c57600080fd5b5056fea264697066735822122019e5b8f0f0f40cf5d514c21492425f2697a1fa31297d6a4af4e98054ca8810b764736f6c63430008000033",
  "linkReferences": {},
  "deployedLinkReferences": {}
}