{
  "_format": "hh-sol-artifact-1",
  "contractName": "SpaceCoin",
  "sourceName": "contracts/SpaceCoin.sol",
  "abi": [
    {
      "inputs": [
        {
          "internalType": "uint256",
          "name": "_initialSupply",
          "type": "uint256"
        },
        {
          "internalType": "address",
          "name": "_treasury",
          "type": "address"
        }
      ],
      "stateMutability": "nonpayable",
      "type": "constructor"
    },
    {
      "anonymous": false,
      "inputs": [
        {
          "indexed": true,
          "internalType": "address",
          "name": "owner",
          "type": "address"
        },
        {
          "indexed": true,
          "internalType": "address",
          "name": "spender",
          "type": "address"
        },
        {
          "indexed": false,
          "internalType": "uint256",
          "name": "value",
          "type": "uint256"
        }
      ],
      "name": "Approval",
      "type": "event"
    },
    {
      "anonymous": false,
      "inputs": [
        {
          "indexed": true,
          "internalType": "address",
          "name": "from",
          "type": "address"
        },
        {
          "indexed": true,
          "internalType": "address",
          "name": "to",
          "type": "address"
        },
        {
          "indexed": false,
          "internalType": "uint256",
          "name": "value",
          "type": "uint256"
        }
      ],
      "name": "Transfer",
      "type": "event"
    },
    {
      "inputs": [
        {
          "internalType": "address",
          "name": "owner",
          "type": "address"
        },
        {
          "internalType": "address",
          "name": "spender",
          "type": "address"
        }
      ],
      "name": "allowance",
      "outputs": [
        {
          "internalType": "uint256",
          "name": "",
          "type": "uint256"
        }
      ],
      "stateMutability": "view",
      "type": "function"
    },
    {
      "inputs": [
        {
          "internalType": "address",
          "name": "spender",
          "type": "address"
        },
        {
          "internalType": "uint256",
          "name": "amount",
          "type": "uint256"
        }
      ],
      "name": "approve",
      "outputs": [
        {
          "internalType": "bool",
          "name": "",
          "type": "bool"
        }
      ],
      "stateMutability": "nonpayable",
      "type": "function"
    },
    {
      "inputs": [
        {
          "internalType": "address",
          "name": "account",
          "type": "address"
        }
      ],
      "name": "balanceOf",
      "outputs": [
        {
          "internalType": "uint256",
          "name": "",
          "type": "uint256"
        }
      ],
      "stateMutability": "view",
      "type": "function"
    },
    {
      "inputs": [
        {
          "internalType": "address",
          "name": "",
          "type": "address"
        }
      ],
      "name": "balances",
      "outputs": [
        {
          "internalType": "uint256",
          "name": "",
          "type": "uint256"
        }
      ],
      "stateMutability": "view",
      "type": "function"
    },
    {
      "inputs": [],
      "name": "decimals",
      "outputs": [
        {
          "internalType": "uint8",
          "name": "",
          "type": "uint8"
        }
      ],
      "stateMutability": "view",
      "type": "function"
    },
    {
      "inputs": [
        {
          "internalType": "address",
          "name": "spender",
          "type": "address"
        },
        {
          "internalType": "uint256",
          "name": "subtractedValue",
          "type": "uint256"
        }
      ],
      "name": "decreaseAllowance",
      "outputs": [
        {
          "internalType": "bool",
          "name": "",
          "type": "bool"
        }
      ],
      "stateMutability": "nonpayable",
      "type": "function"
    },
    {
      "inputs": [
        {
          "internalType": "address",
          "name": "spender",
          "type": "address"
        },
        {
          "internalType": "uint256",
          "name": "addedValue",
          "type": "uint256"
        }
      ],
      "name": "increaseAllowance",
      "outputs": [
        {
          "internalType": "bool",
          "name": "",
          "type": "bool"
        }
      ],
      "stateMutability": "nonpayable",
      "type": "function"
    },
    {
      "inputs": [
        {
          "internalType": "uint256",
          "name": "amount",
          "type": "uint256"
        }
      ],
      "name": "increaseSupply",
      "outputs": [],
      "stateMutability": "nonpayable",
      "type": "function"
    },
    {
      "inputs": [],
      "name": "name",
      "outputs": [
        {
          "internalType": "string",
          "name": "",
          "type": "string"
        }
      ],
      "stateMutability": "view",
      "type": "function"
    },
    {
      "inputs": [],
      "name": "owner",
      "outputs": [
        {
          "internalType": "address",
          "name": "",
          "type": "address"
        }
      ],
      "stateMutability": "view",
      "type": "function"
    },
    {
      "inputs": [
        {
          "internalType": "bool",
          "name": "control",
          "type": "bool"
        }
      ],
      "name": "setTax",
      "outputs": [],
      "stateMutability": "nonpayable",
      "type": "function"
    },
    {
      "inputs": [],
      "name": "supply",
      "outputs": [
        {
          "internalType": "uint256",
          "name": "",
          "type": "uint256"
        }
      ],
      "stateMutability": "view",
      "type": "function"
    },
    {
      "inputs": [],
      "name": "symbol",
      "outputs": [
        {
          "internalType": "string",
          "name": "",
          "type": "string"
        }
      ],
      "stateMutability": "view",
      "type": "function"
    },
    {
      "inputs": [],
      "name": "tax",
      "outputs": [
        {
          "internalType": "bool",
          "name": "",
          "type": "bool"
        }
      ],
      "stateMutability": "view",
      "type": "function"
    },
    {
      "inputs": [],
      "name": "totalSupply",
      "outputs": [
        {
          "internalType": "uint256",
          "name": "",
          "type": "uint256"
        }
      ],
      "stateMutability": "view",
      "type": "function"
    },
    {
      "inputs": [
        {
          "internalType": "address",
          "name": "recipient",
          "type": "address"
        },
        {
          "internalType": "uint256",
          "name": "amount",
          "type": "uint256"
        }
      ],
      "name": "transfer",
      "outputs": [
        {
          "internalType": "bool",
          "name": "",
          "type": "bool"
        }
      ],
      "stateMutability": "nonpayable",
      "type": "function"
    },
    {
      "inputs": [
        {
          "internalType": "address",
          "name": "sender",
          "type": "address"
        },
        {
          "internalType": "address",
          "name": "recipient",
          "type": "address"
        },
        {
          "internalType": "uint256",
          "name": "amount",
          "type": "uint256"
        }
      ],
      "name": "transferFrom",
      "outputs": [
        {
          "internalType": "bool",
          "name": "",
          "type": "bool"
        }
      ],
      "stateMutability": "nonpayable",
      "type": "function"
    },
    {
      "inputs": [],
      "name": "treasury",
      "outputs": [
        {
          "internalType": "address",
          "name": "",
          "type": "address"
        }
      ],
      "stateMutability": "view",
      "type": "function"
    }
  ],
  "bytecode": "0x60806040523480156200001157600080fd5b5060405162001ee038038062001ee08339818101604052810190620000379190620003c1565b6040518060400160405280600981526020017f5370616365436f696e00000000000000000000000000000000000000000000008152506040518060400160405280600381526020017f53504300000000000000000000000000000000000000000000000000000000008152508160039080519060200190620000bb929190620002e3565b508060049080519060200190620000d4929190620002e3565b50505033600560016101000a81548173ffffffffffffffffffffffffffffffffffffffff021916908373ffffffffffffffffffffffffffffffffffffffff16021790555080600660006101000a81548173ffffffffffffffffffffffffffffffffffffffff021916908373ffffffffffffffffffffffffffffffffffffffff1602179055506200016b33836200017360201b60201c565b505062000608565b6969e10de76676d0800000816007546200018e9190620004a5565b1115620001d2576040517f08c379a0000000000000000000000000000000000000000000000000000000008152600401620001c99062000455565b60405180910390fd5b620001e660008383620002d960201b60201c565b8060076000828254620001fa9190620004a5565b9250508190555080600860008473ffffffffffffffffffffffffffffffffffffffff1673ffffffffffffffffffffffffffffffffffffffff1681526020019081526020016000206000828254620002529190620004a5565b925050819055508173ffffffffffffffffffffffffffffffffffffffff16600073ffffffffffffffffffffffffffffffffffffffff167fddf252ad1be2c89b69c2b068fc378daa952ba7f163c4a11628f55a4df523b3ef83604051620002b9919062000477565b60405180910390a3620002d560008383620002de60201b60201c565b5050565b505050565b505050565b828054620002f19062000540565b90600052602060002090601f01602090048101928262000315576000855562000361565b82601f106200033057805160ff191683800117855562000361565b8280016001018555821562000361579182015b828111156200036057825182559160200191906001019062000343565b5b50905062000370919062000374565b5090565b5b808211156200038f57600081600090555060010162000375565b5090565b600081519050620003a481620005d4565b92915050565b600081519050620003bb81620005ee565b92915050565b60008060408385031215620003d557600080fd5b6000620003e585828601620003aa565b9250506020620003f88582860162000393565b9150509250929050565b60006200041160088362000494565b91507f4f5645525f4d41580000000000000000000000000000000000000000000000006000830152602082019050919050565b6200044f8162000536565b82525050565b60006020820190508181036000830152620004708162000402565b9050919050565b60006020820190506200048e600083018462000444565b92915050565b600082825260208201905092915050565b6000620004b28262000536565b9150620004bf8362000536565b9250827fffffffffffffffffffffffffffffffffffffffffffffffffffffffffffffffff03821115620004f757620004f662000576565b5b828201905092915050565b60006200050f8262000516565b9050919050565b600073ffffffffffffffffffffffffffffffffffffffff82169050919050565b6000819050919050565b600060028204905060018216806200055957607f821691505b6020821081141562000570576200056f620005a5565b5b50919050565b7f4e487b7100000000000000000000000000000000000000000000000000000000600052601160045260246000fd5b7f4e487b7100000000000000000000000000000000000000000000000000000000600052602260045260246000fd5b620005df8162000502565b8114620005eb57600080fd5b50565b620005f98162000536565b81146200060557600080fd5b50565b6118c880620006186000396000f3fe608060405234801561001057600080fd5b50600436106101165760003560e01c806370a08231116100a2578063a457c2d711610071578063a457c2d7146102fb578063a9059cbb1461032b578063b921e1631461035b578063dd62ed3e14610377578063e234472f146103a757610116565b806370a08231146102715780638da5cb5b146102a157806395d89b41146102bf57806399c8d556146102dd57610116565b806323b872dd116100e957806323b872dd146101a557806327e235e3146101d5578063313ce56714610205578063395093511461022357806361d027b31461025357610116565b8063047fc9aa1461011b57806306fdde0314610139578063095ea7b31461015757806318160ddd14610187575b600080fd5b6101236103c3565b604051610130919061158e565b60405180910390f35b6101416103c9565b60405161014e919061148c565b60405180910390f35b610171600480360381019061016c91906110d5565b61045b565b60405161017e9190611471565b60405180910390f35b61018f610479565b60405161019c919061158e565b60405180910390f35b6101bf60048036038101906101ba9190611086565b610483565b6040516101cc9190611471565b60405180910390f35b6101ef60048036038101906101ea9190611021565b61057b565b6040516101fc919061158e565b60405180910390f35b61020d610593565b60405161021a91906115a9565b60405180910390f35b61023d600480360381019061023891906110d5565b61059c565b60405161024a9190611471565b60405180910390f35b61025b610648565b6040516102689190611456565b60405180910390f35b61028b60048036038101906102869190611021565b61066e565b604051610298919061158e565b60405180910390f35b6102a96106b7565b6040516102b69190611456565b60405180910390f35b6102c76106dd565b6040516102d4919061148c565b60405180910390f35b6102e561076f565b6040516102f29190611471565b60405180910390f35b610315600480360381019061031091906110d5565b610782565b6040516103229190611471565b60405180910390f35b610345600480360381019061034091906110d5565b61086d565b6040516103529190611471565b60405180910390f35b6103756004803603810190610370919061113a565b61088b565b005b610391600480360381019061038c919061104a565b610928565b60405161039e919061158e565b60405180910390f35b6103c160048036038101906103bc9190611111565b6109af565b005b60075481565b6060600380546103d89061177d565b80601f01602080910402602001604051908101604052809291908181526020018280546104049061177d565b80156104515780601f1061042657610100808354040283529160200191610451565b820191906000526020600020905b81548152906001019060200180831161043457829003601f168201915b5050505050905090565b600061046f610468610a5c565b8484610a64565b6001905092915050565b6000600754905090565b6000610490848484610c2f565b6000600160008673ffffffffffffffffffffffffffffffffffffffff1673ffffffffffffffffffffffffffffffffffffffff16815260200190815260200160002060006104db610a5c565b73ffffffffffffffffffffffffffffffffffffffff1673ffffffffffffffffffffffffffffffffffffffff1681526020019081526020016000205490508281101561055b576040517f08c379a00000000000000000000000000000000000000000000000000000000081526004016105529061150e565b60405180910390fd5b61056f85610567610a5c565b858403610a64565b60019150509392505050565b60086020528060005260406000206000915090505481565b60006012905090565b600061063e6105a9610a5c565b8484600160006105b7610a5c565b73ffffffffffffffffffffffffffffffffffffffff1673ffffffffffffffffffffffffffffffffffffffff16815260200190815260200160002060008873ffffffffffffffffffffffffffffffffffffffff1673ffffffffffffffffffffffffffffffffffffffff1681526020019081526020016000205461063991906115e0565b610a64565b6001905092915050565b600660009054906101000a900473ffffffffffffffffffffffffffffffffffffffff1681565b6000600860008373ffffffffffffffffffffffffffffffffffffffff1673ffffffffffffffffffffffffffffffffffffffff168152602001908152602001600020549050919050565b600560019054906101000a900473ffffffffffffffffffffffffffffffffffffffff1681565b6060600480546106ec9061177d565b80601f01602080910402602001604051908101604052809291908181526020018280546107189061177d565b80156107655780601f1061073a57610100808354040283529160200191610765565b820191906000526020600020905b81548152906001019060200180831161074857829003601f168201915b5050505050905090565b600560009054906101000a900460ff1681565b60008060016000610791610a5c565b73ffffffffffffffffffffffffffffffffffffffff1673ffffffffffffffffffffffffffffffffffffffff16815260200190815260200160002060008573ffffffffffffffffffffffffffffffffffffffff1673ffffffffffffffffffffffffffffffffffffffff1681526020019081526020016000205490508281101561084e576040517f08c379a00000000000000000000000000000000000000000000000000000000081526004016108459061156e565b60405180910390fd5b610862610859610a5c565b85858403610a64565b600191505092915050565b600061088161087a610a5c565b8484610c2f565b6001905092915050565b600560019054906101000a900473ffffffffffffffffffffffffffffffffffffffff1673ffffffffffffffffffffffffffffffffffffffff163373ffffffffffffffffffffffffffffffffffffffff161461091b576040517f08c379a00000000000000000000000000000000000000000000000000000000081526004016109129061154e565b60405180910390fd5b6109253382610e8d565b50565b6000600160008473ffffffffffffffffffffffffffffffffffffffff1673ffffffffffffffffffffffffffffffffffffffff16815260200190815260200160002060008373ffffffffffffffffffffffffffffffffffffffff1673ffffffffffffffffffffffffffffffffffffffff16815260200190815260200160002054905092915050565b600560019054906101000a900473ffffffffffffffffffffffffffffffffffffffff1673ffffffffffffffffffffffffffffffffffffffff163373ffffffffffffffffffffffffffffffffffffffff1614610a3f576040517f08c379a0000000000000000000000000000000000000000000000000000000008152600401610a369061154e565b60405180910390fd5b80600560006101000a81548160ff02191690831515021790555050565b600033905090565b600073ffffffffffffffffffffffffffffffffffffffff168373ffffffffffffffffffffffffffffffffffffffff161415610ad4576040517f08c379a0000000000000000000000000000000000000000000000000000000008152600401610acb9061152e565b60405180910390fd5b600073ffffffffffffffffffffffffffffffffffffffff168273ffffffffffffffffffffffffffffffffffffffff161415610b44576040517f08c379a0000000000000000000000000000000000000000000000000000000008152600401610b3b906114ae565b60405180910390fd5b80600160008573ffffffffffffffffffffffffffffffffffffffff1673ffffffffffffffffffffffffffffffffffffffff16815260200190815260200160002060008473ffffffffffffffffffffffffffffffffffffffff1673ffffffffffffffffffffffffffffffffffffffff168152602001908152602001600020819055508173ffffffffffffffffffffffffffffffffffffffff168373ffffffffffffffffffffffffffffffffffffffff167f8c5be1e5ebec7d5bd14f71427d1e84f3dd0314c0f7b2291e5b200ac8c7c3b92583604051610c22919061158e565b60405180910390a3505050565b610c3a838383610fd8565b6000600860008573ffffffffffffffffffffffffffffffffffffffff1673ffffffffffffffffffffffffffffffffffffffff16815260200190815260200160002054905081811015610cc1576040517f08c379a0000000000000000000000000000000000000000000000000000000008152600401610cb8906114ce565b60405180910390fd5b818103600860008673ffffffffffffffffffffffffffffffffffffffff1673ffffffffffffffffffffffffffffffffffffffff16815260200190815260200160002081905550600560009054906101000a900460ff1615610dc15760008290506064606284610d309190611667565b610d3a9190611636565b92508281610d4891906116c1565b60086000600660009054906101000a900473ffffffffffffffffffffffffffffffffffffffff1673ffffffffffffffffffffffffffffffffffffffff1673ffffffffffffffffffffffffffffffffffffffff1681526020019081526020016000206000828254610db891906115e0565b92505081905550505b81600860008573ffffffffffffffffffffffffffffffffffffffff1673ffffffffffffffffffffffffffffffffffffffff1681526020019081526020016000206000828254610e1091906115e0565b925050819055508273ffffffffffffffffffffffffffffffffffffffff168473ffffffffffffffffffffffffffffffffffffffff167fddf252ad1be2c89b69c2b068fc378daa952ba7f163c4a11628f55a4df523b3ef84604051610e74919061158e565b60405180910390a3610e87848484610fdd565b50505050565b6969e10de76676d080000081600754610ea691906115e0565b1115610ee7576040517f08c379a0000000000000000000000000000000000000000000000000000000008152600401610ede906114ee565b60405180910390fd5b610ef360008383610fd8565b8060076000828254610f0591906115e0565b9250508190555080600860008473ffffffffffffffffffffffffffffffffffffffff1673ffffffffffffffffffffffffffffffffffffffff1681526020019081526020016000206000828254610f5b91906115e0565b925050819055508173ffffffffffffffffffffffffffffffffffffffff16600073ffffffffffffffffffffffffffffffffffffffff167fddf252ad1be2c89b69c2b068fc378daa952ba7f163c4a11628f55a4df523b3ef83604051610fc0919061158e565b60405180910390a3610fd460008383610fdd565b5050565b505050565b505050565b600081359050610ff18161184d565b92915050565b60008135905061100681611864565b92915050565b60008135905061101b8161187b565b92915050565b60006020828403121561103357600080fd5b600061104184828501610fe2565b91505092915050565b6000806040838503121561105d57600080fd5b600061106b85828601610fe2565b925050602061107c85828601610fe2565b9150509250929050565b60008060006060848603121561109b57600080fd5b60006110a986828701610fe2565b93505060206110ba86828701610fe2565b92505060406110cb8682870161100c565b9150509250925092565b600080604083850312156110e857600080fd5b60006110f685828601610fe2565b92505060206111078582860161100c565b9150509250929050565b60006020828403121561112357600080fd5b600061113184828501610ff7565b91505092915050565b60006020828403121561114c57600080fd5b600061115a8482850161100c565b91505092915050565b61116c816116f5565b82525050565b61117b81611707565b82525050565b600061118c826115c4565b61119681856115cf565b93506111a681856020860161174a565b6111af8161183c565b840191505092915050565b60006111c76022836115cf565b91507f45524332303a20617070726f766520746f20746865207a65726f20616464726560008301527f73730000000000000000000000000000000000000000000000000000000000006020830152604082019050919050565b600061122d6026836115cf565b91507f45524332303a207472616e7366657220616d6f756e742065786365656473206260008301527f616c616e636500000000000000000000000000000000000000000000000000006020830152604082019050919050565b60006112936008836115cf565b91507f4f5645525f4d41580000000000000000000000000000000000000000000000006000830152602082019050919050565b60006112d36028836115cf565b91507f45524332303a207472616e7366657220616d6f756e742065786365656473206160008301527f6c6c6f77616e63650000000000000000000000000000000000000000000000006020830152604082019050919050565b60006113396024836115cf565b91507f45524332303a20617070726f76652066726f6d20746865207a65726f2061646460008301527f72657373000000000000000000000000000000000000000000000000000000006020830152604082019050919050565b600061139f6009836115cf565b91507f4e4f545f4f574e455200000000000000000000000000000000000000000000006000830152602082019050919050565b60006113df6025836115cf565b91507f45524332303a2064656372656173656420616c6c6f77616e63652062656c6f7760008301527f207a65726f0000000000000000000000000000000000000000000000000000006020830152604082019050919050565b61144181611733565b82525050565b6114508161173d565b82525050565b600060208201905061146b6000830184611163565b92915050565b60006020820190506114866000830184611172565b92915050565b600060208201905081810360008301526114a68184611181565b905092915050565b600060208201905081810360008301526114c7816111ba565b9050919050565b600060208201905081810360008301526114e781611220565b9050919050565b6000602082019050818103600083015261150781611286565b9050919050565b60006020820190508181036000830152611527816112c6565b9050919050565b600060208201905081810360008301526115478161132c565b9050919050565b6000602082019050818103600083015261156781611392565b9050919050565b60006020820190508181036000830152611587816113d2565b9050919050565b60006020820190506115a36000830184611438565b92915050565b60006020820190506115be6000830184611447565b92915050565b600081519050919050565b600082825260208201905092915050565b60006115eb82611733565b91506115f683611733565b9250827fffffffffffffffffffffffffffffffffffffffffffffffffffffffffffffffff0382111561162b5761162a6117af565b5b828201905092915050565b600061164182611733565b915061164c83611733565b92508261165c5761165b6117de565b5b828204905092915050565b600061167282611733565b915061167d83611733565b9250817fffffffffffffffffffffffffffffffffffffffffffffffffffffffffffffffff04831182151516156116b6576116b56117af565b5b828202905092915050565b60006116cc82611733565b91506116d783611733565b9250828210156116ea576116e96117af565b5b828203905092915050565b600061170082611713565b9050919050565b60008115159050919050565b600073ffffffffffffffffffffffffffffffffffffffff82169050919050565b6000819050919050565b600060ff82169050919050565b60005b8381101561176857808201518184015260208101905061174d565b83811115611777576000848401525b50505050565b6000600282049050600182168061179557607f821691505b602082108114156117a9576117a861180d565b5b50919050565b7f4e487b7100000000000000000000000000000000000000000000000000000000600052601160045260246000fd5b7f4e487b7100000000000000000000000000000000000000000000000000000000600052601260045260246000fd5b7f4e487b7100000000000000000000000000000000000000000000000000000000600052602260045260246000fd5b6000601f19601f8301169050919050565b611856816116f5565b811461186157600080fd5b50565b61186d81611707565b811461187857600080fd5b50565b61188481611733565b811461188f57600080fd5b5056fea26469706673582212201c4ec19749c99aa609238e8c725064b118f50b10447c9bb240611a6b0223bd7364736f6c63430008000033",
  "linkReferences": {},
  "deployedLinkReferences": {}
}